{
  "address": "0xDb9b14eCD9feEc63B8AAc66c6985134F73a7F0A7",
  "abi": [
    {
      "inputs": [
        {
          "internalType": "address",
          "name": "exampleExternalContractAddress",
          "type": "address"
        }
      ],
      "stateMutability": "nonpayable",
      "type": "constructor"
    },
    {
      "anonymous": false,
      "inputs": [
        {
          "indexed": false,
          "internalType": "address",
          "name": "",
          "type": "address"
        },
        {
          "indexed": false,
          "internalType": "uint256",
          "name": "",
          "type": "uint256"
        }
      ],
      "name": "Stake",
      "type": "event"
    },
    {
      "inputs": [
        {
          "internalType": "address",
          "name": "",
          "type": "address"
        }
      ],
      "name": "balances",
      "outputs": [
        {
          "internalType": "uint256",
          "name": "",
          "type": "uint256"
        }
      ],
      "stateMutability": "view",
      "type": "function"
    },
    {
      "inputs": [],
      "name": "deadline",
      "outputs": [
        {
          "internalType": "uint256",
          "name": "",
          "type": "uint256"
        }
      ],
      "stateMutability": "view",
      "type": "function"
    },
    {
      "inputs": [],
      "name": "exampleExternalContract",
      "outputs": [
        {
          "internalType": "contract ExampleExternalContract",
          "name": "",
          "type": "address"
        }
      ],
      "stateMutability": "view",
      "type": "function"
    },
    {
      "inputs": [],
      "name": "execute",
      "outputs": [],
      "stateMutability": "nonpayable",
      "type": "function"
    },
    {
      "inputs": [],
      "name": "stake",
      "outputs": [],
      "stateMutability": "payable",
      "type": "function"
    },
    {
      "inputs": [],
      "name": "threshold",
      "outputs": [
        {
          "internalType": "uint256",
          "name": "",
          "type": "uint256"
        }
      ],
      "stateMutability": "view",
      "type": "function"
    },
    {
      "inputs": [],
      "name": "timeLeft",
      "outputs": [
        {
          "internalType": "uint256",
          "name": "",
          "type": "uint256"
        }
      ],
      "stateMutability": "view",
      "type": "function"
    },
    {
      "inputs": [],
      "name": "withdraw",
      "outputs": [],
      "stateMutability": "nonpayable",
      "type": "function"
    },
    {
      "inputs": [
        {
          "internalType": "address",
          "name": "",
          "type": "address"
        }
      ],
      "name": "withdrawnYet",
      "outputs": [
        {
          "internalType": "bool",
          "name": "",
          "type": "bool"
        }
      ],
      "stateMutability": "view",
      "type": "function"
    },
    {
      "stateMutability": "payable",
      "type": "receive"
    }
  ],
  "transactionHash": "0xc2e21b53ec12d1c43cd0e51f4ade24d685355e76b09f71e99b2886926b0fd0e0",
  "args": [
    "0x55951fE7E80A5A33Fcf41F2f1a3399ab848fd0D6"
  ],
  "numDeployments": 1,
  "solcInputHash": "9e5dfd42ebbbc42d26e2c220a7e84120",
  "bytecode": "0x6080604052610011426203f48061006f565b6003556004805461ffff1916905534801561002b57600080fd5b5060405161082738038061082783398101604081905261004a91610096565b600080546001600160a01b0319166001600160a01b03929092169190911790556100c6565b8082018082111561009057634e487b7160e01b600052601160045260246000fd5b92915050565b6000602082840312156100a857600080fd5b81516001600160a01b03811681146100bf57600080fd5b9392505050565b610752806100d56000396000f3fe60806040526004361061008a5760003560e01c80633ccfd60b116100595780633ccfd60b1461010b57806342cde4e814610120578063614619541461013c57806383172fd9146101515780639f75f2271461019157600080fd5b80631300a6d11461009657806327e235e3146100be57806329dcb0cf146100eb5780633a4b66f11461010157600080fd5b3661009157005b600080fd5b3480156100a257600080fd5b506100ab6101c9565b6040519081526020015b60405180910390f35b3480156100ca57600080fd5b506100ab6100d9366004610688565b60016020526000908152604090205481565b3480156100f757600080fd5b506100ab60035481565b6101096101ed565b005b34801561011757600080fd5b506101096102df565b34801561012c57600080fd5b506100ab670de0b6b3a764000081565b34801561014857600080fd5b50610109610498565b34801561015d57600080fd5b5061018161016c366004610688565b60026020526000908152604090205460ff1681565b60405190151581526020016100b5565b34801561019d57600080fd5b506000546101b1906001600160a01b031681565b6040516001600160a01b0390911681526020016100b5565b600060035442106101da5750600090565b426003546101e891906106ce565b905090565b60045460ff161561023b5760405162461bcd60e51b815260206004820152601360248201527229ba30b5b4b733903832b934b7b21037bb32b960691b60448201526064015b60405180910390fd5b600034116102815760405162461bcd60e51b815260206004820152601360248201527214d95b9908115512081d1bc819195c1bdcda5d606a1b6044820152606401610232565b33600090815260016020526040812080543492906102a09084906106e7565b9091555050604080513381523460208201527febedb8b3c678666e7f36970bc8f57abf6d8fa2e828c0da91ea5b75bf68ed101a910160405180910390a1565b60008054906101000a90046001600160a01b03166001600160a01b0316639d9a7fe96040518163ffffffff1660e01b8152600401602060405180830381865afa158015610330573d6000803e3d6000fd5b505050506040513d601f19601f8201168201806040525081019061035491906106fa565b156103955760405162461bcd60e51b8152602060048201526011602482015270105b1c9958591e4818dbdb5c1b195d1959607a1b6044820152606401610232565b600454610100900460ff166103e45760405162461bcd60e51b81526020600482015260156024820152744e6f74206f70656e20666f7220776974686472617760581b6044820152606401610232565b3360009081526002602052604090205460ff16156104385760405162461bcd60e51b815260206004820152601160248201527057697468647261776e20616c726561647960781b6044820152606401610232565b3360008181526001602052604080822054905181156108fc0292818181858888f1935050505015801561046f573d6000803e3d6000fd5b50336000908152600260209081526040808320805460ff19166001908117909155909152812055565b60008054906101000a90046001600160a01b03166001600160a01b0316639d9a7fe96040518163ffffffff1660e01b8152600401602060405180830381865afa1580156104e9573d6000803e3d6000fd5b505050506040513d601f19601f8201168201806040525081019061050d91906106fa565b1561054e5760405162461bcd60e51b8152602060048201526011602482015270105b1c9958591e4818dbdb5c1b195d1959607a1b6044820152606401610232565b6105566101c9565b156105965760405162461bcd60e51b815260206004820152601060248201526f139bdd08191958591b1a5b99481e595d60821b6044820152606401610232565b60045460ff16156105e95760405162461bcd60e51b815260206004820181905260248201527f46756e6374696f6e2063616e206f6e6c792062652063616c6c6564206f6e63656044820152606401610232565b6004805460ff19166001179055670de0b6b3a764000047111561066f5760008054906101000a90046001600160a01b03166001600160a01b031663522e1177476040518263ffffffff1660e01b81526004016000604051808303818588803b15801561065457600080fd5b505af1158015610668573d6000803e3d6000fd5b5050505050565b6004805461ff0019166101001790556106866102df565b565b60006020828403121561069a57600080fd5b81356001600160a01b03811681146106b157600080fd5b9392505050565b634e487b7160e01b600052601160045260246000fd5b818103818111156106e1576106e16106b8565b92915050565b808201808211156106e1576106e16106b8565b60006020828403121561070c57600080fd5b815180151581146106b157600080fdfea2646970667358221220360a6f0cf233bbd53f6c52f898fa441fd67521536c841cc4e2d5035d5fb6eca864736f6c63430008140033",
  "devdoc": {
    "kind": "dev",
    "methods": {},
    "version": 1
  },
  "userdoc": {
    "kind": "user",
    "methods": {},
    "version": 1
  },
  "storageLayout": {
    "storage": [
      {
        "astId": 19,
        "contract": "contracts/Staker.sol:Staker",
        "label": "exampleExternalContract",
        "offset": 0,
        "slot": "0",
        "type": "t_contract(ExampleExternalContract)12"
      },
      {
        "astId": 41,
        "contract": "contracts/Staker.sol:Staker",
        "label": "balances",
        "offset": 0,
        "slot": "1",
        "type": "t_mapping(t_address,t_uint256)"
      },
      {
        "astId": 45,
        "contract": "contracts/Staker.sol:Staker",
        "label": "withdrawnYet",
        "offset": 0,
        "slot": "2",
        "type": "t_mapping(t_address,t_bool)"
      },
      {
        "astId": 54,
        "contract": "contracts/Staker.sol:Staker",
        "label": "deadline",
        "offset": 0,
        "slot": "3",
        "type": "t_uint256"
      },
      {
        "astId": 57,
        "contract": "contracts/Staker.sol:Staker",
        "label": "called",
        "offset": 0,
        "slot": "4",
        "type": "t_bool"
      },
      {
        "astId": 60,
        "contract": "contracts/Staker.sol:Staker",
        "label": "openForWithdraw",
        "offset": 1,
        "slot": "4",
        "type": "t_bool"
      }
    ],
    "types": {
      "t_address": {
        "encoding": "inplace",
        "label": "address",
        "numberOfBytes": "20"
      },
      "t_bool": {
        "encoding": "inplace",
        "label": "bool",
        "numberOfBytes": "1"
      },
      "t_contract(ExampleExternalContract)12": {
        "encoding": "inplace",
        "label": "contract ExampleExternalContract",
        "numberOfBytes": "20"
      },
      "t_mapping(t_address,t_bool)": {
        "encoding": "mapping",
        "key": "t_address",
        "label": "mapping(address => bool)",
        "numberOfBytes": "32",
        "value": "t_bool"
      },
      "t_mapping(t_address,t_uint256)": {
        "encoding": "mapping",
        "key": "t_address",
        "label": "mapping(address => uint256)",
        "numberOfBytes": "32",
        "value": "t_uint256"
      },
      "t_uint256": {
        "encoding": "inplace",
        "label": "uint256",
        "numberOfBytes": "32"
      }
    }
  }
}