{
  "address": "0xaB35a9175a50cf75d70B467fF51795F62cd154eb",
  "abi": [
    {
      "inputs": [
        {
          "internalType": "address",
          "name": "_decider",
          "type": "address"
        }
      ],
      "stateMutability": "nonpayable",
      "type": "constructor"
    },
    {
      "inputs": [],
      "name": "AlreadyClaimed",
      "type": "error"
    },
    {
      "inputs": [],
      "name": "AlreadySettled",
      "type": "error"
    },
    {
      "inputs": [],
      "name": "AssertionNotFound",
      "type": "error"
    },
    {
      "inputs": [],
      "name": "AssertionProposed",
      "type": "error"
    },
    {
      "inputs": [],
      "name": "AwaitingDecider",
      "type": "error"
    },
    {
      "inputs": [],
      "name": "InvalidTime",
      "type": "error"
    },
    {
      "inputs": [],
      "name": "InvalidValue",
      "type": "error"
    },
    {
      "inputs": [],
      "name": "NotDisputedAssertion",
      "type": "error"
    },
    {
      "inputs": [],
      "name": "NotProposedAssertion",
      "type": "error"
    },
    {
      "inputs": [],
      "name": "OnlyDecider",
      "type": "error"
    },
    {
      "inputs": [],
      "name": "OnlyOwner",
      "type": "error"
    },
    {
      "inputs": [],
      "name": "ProposalDisputed",
      "type": "error"
    },
    {
      "inputs": [],
      "name": "TransferFailed",
      "type": "error"
    },
    {
      "anonymous": false,
      "inputs": [
        {
          "indexed": false,
          "internalType": "uint256",
          "name": "assertionId",
          "type": "uint256"
        },
        {
          "indexed": false,
          "internalType": "bool",
          "name": "outcome",
          "type": "bool"
        },
        {
          "indexed": false,
          "internalType": "address",
          "name": "winner",
          "type": "address"
        }
      ],
      "name": "AssertionSettled",
      "type": "event"
    },
    {
      "anonymous": false,
      "inputs": [
        {
          "indexed": false,
          "internalType": "address",
          "name": "oldDecider",
          "type": "address"
        },
        {
          "indexed": false,
          "internalType": "address",
          "name": "newDecider",
          "type": "address"
        }
      ],
      "name": "DeciderUpdated",
      "type": "event"
    },
    {
      "anonymous": false,
      "inputs": [
        {
          "indexed": false,
          "internalType": "uint256",
          "name": "assertionId",
          "type": "uint256"
        },
        {
          "indexed": false,
          "internalType": "address",
          "name": "asserter",
          "type": "address"
        },
        {
          "indexed": false,
          "internalType": "string",
          "name": "description",
          "type": "string"
        },
        {
          "indexed": false,
          "internalType": "uint256",
          "name": "reward",
          "type": "uint256"
        }
      ],
      "name": "EventAsserted",
      "type": "event"
    },
    {
      "anonymous": false,
      "inputs": [
        {
          "indexed": false,
          "internalType": "uint256",
          "name": "assertionId",
          "type": "uint256"
        },
        {
          "indexed": false,
          "internalType": "address",
          "name": "disputer",
          "type": "address"
        }
      ],
      "name": "OutcomeDisputed",
      "type": "event"
    },
    {
      "anonymous": false,
      "inputs": [
        {
          "indexed": false,
          "internalType": "uint256",
          "name": "assertionId",
          "type": "uint256"
        },
        {
          "indexed": false,
          "internalType": "address",
          "name": "proposer",
          "type": "address"
        },
        {
          "indexed": false,
          "internalType": "bool",
          "name": "outcome",
          "type": "bool"
        }
      ],
      "name": "OutcomeProposed",
      "type": "event"
    },
    {
      "anonymous": false,
      "inputs": [
        {
          "indexed": false,
          "internalType": "uint256",
          "name": "assertionId",
          "type": "uint256"
        },
        {
          "indexed": false,
          "internalType": "address",
          "name": "asserter",
          "type": "address"
        },
        {
          "indexed": false,
          "internalType": "uint256",
          "name": "amount",
          "type": "uint256"
        }
      ],
      "name": "RefundClaimed",
      "type": "event"
    },
    {
      "anonymous": false,
      "inputs": [
        {
          "indexed": false,
          "internalType": "uint256",
          "name": "assertionId",
          "type": "uint256"
        },
        {
          "indexed": false,
          "internalType": "address",
          "name": "winner",
          "type": "address"
        },
        {
          "indexed": false,
          "internalType": "uint256",
          "name": "amount",
          "type": "uint256"
        }
      ],
      "name": "RewardClaimed",
      "type": "event"
    },
    {
      "inputs": [],
      "name": "DISPUTE_WINDOW",
      "outputs": [
        {
          "internalType": "uint256",
          "name": "",
          "type": "uint256"
        }
      ],
      "stateMutability": "view",
      "type": "function"
    },
    {
      "inputs": [],
      "name": "MINIMUM_ASSERTION_WINDOW",
      "outputs": [
        {
          "internalType": "uint256",
          "name": "",
          "type": "uint256"
        }
      ],
      "stateMutability": "view",
      "type": "function"
    },
    {
      "inputs": [
        {
          "internalType": "string",
          "name": "description",
          "type": "string"
        },
        {
          "internalType": "uint256",
          "name": "startTime",
          "type": "uint256"
        },
        {
          "internalType": "uint256",
          "name": "endTime",
          "type": "uint256"
        }
      ],
      "name": "assertEvent",
      "outputs": [
        {
          "internalType": "uint256",
          "name": "",
          "type": "uint256"
        }
      ],
      "stateMutability": "payable",
      "type": "function"
    },
    {
      "inputs": [
        {
          "internalType": "uint256",
          "name": "",
          "type": "uint256"
        }
      ],
      "name": "assertions",
      "outputs": [
        {
          "internalType": "address",
          "name": "asserter",
          "type": "address"
        },
        {
          "internalType": "address",
          "name": "proposer",
          "type": "address"
        },
        {
          "internalType": "address",
          "name": "disputer",
          "type": "address"
        },
        {
          "internalType": "bool",
          "name": "proposedOutcome",
          "type": "bool"
        },
        {
          "internalType": "bool",
          "name": "resolvedOutcome",
          "type": "bool"
        },
        {
          "internalType": "uint256",
          "name": "reward",
          "type": "uint256"
        },
        {
          "internalType": "uint256",
          "name": "bond",
          "type": "uint256"
        },
        {
          "internalType": "uint256",
          "name": "startTime",
          "type": "uint256"
        },
        {
          "internalType": "uint256",
          "name": "endTime",
          "type": "uint256"
        },
        {
          "internalType": "bool",
          "name": "claimed",
          "type": "bool"
        },
        {
          "internalType": "address",
          "name": "winner",
          "type": "address"
        },
        {
          "internalType": "string",
          "name": "description",
          "type": "string"
        }
      ],
      "stateMutability": "view",
      "type": "function"
    },
    {
      "inputs": [
        {
          "internalType": "uint256",
          "name": "assertionId",
          "type": "uint256"
        }
      ],
      "name": "claimDisputedReward",
      "outputs": [],
      "stateMutability": "nonpayable",
      "type": "function"
    },
    {
      "inputs": [
        {
          "internalType": "uint256",
          "name": "assertionId",
          "type": "uint256"
        }
      ],
      "name": "claimRefund",
      "outputs": [],
      "stateMutability": "nonpayable",
      "type": "function"
    },
    {
      "inputs": [
        {
          "internalType": "uint256",
          "name": "assertionId",
          "type": "uint256"
        }
      ],
      "name": "claimUndisputedReward",
      "outputs": [],
      "stateMutability": "nonpayable",
      "type": "function"
    },
    {
      "inputs": [],
      "name": "decider",
      "outputs": [
        {
          "internalType": "address",
          "name": "",
          "type": "address"
        }
      ],
      "stateMutability": "view",
      "type": "function"
    },
    {
      "inputs": [
        {
          "internalType": "uint256",
          "name": "assertionId",
          "type": "uint256"
        }
      ],
      "name": "disputeOutcome",
      "outputs": [],
      "stateMutability": "payable",
      "type": "function"
    },
    {
      "inputs": [
        {
          "internalType": "uint256",
          "name": "assertionId",
          "type": "uint256"
        }
      ],
      "name": "getAssertion",
      "outputs": [
        {
          "components": [
            {
              "internalType": "address",
              "name": "asserter",
              "type": "address"
            },
            {
              "internalType": "address",
              "name": "proposer",
              "type": "address"
            },
            {
              "internalType": "address",
              "name": "disputer",
              "type": "address"
            },
            {
              "internalType": "bool",
              "name": "proposedOutcome",
              "type": "bool"
            },
            {
              "internalType": "bool",
              "name": "resolvedOutcome",
              "type": "bool"
            },
            {
              "internalType": "uint256",
              "name": "reward",
              "type": "uint256"
            },
            {
              "internalType": "uint256",
              "name": "bond",
              "type": "uint256"
            },
            {
              "internalType": "uint256",
              "name": "startTime",
              "type": "uint256"
            },
            {
              "internalType": "uint256",
              "name": "endTime",
              "type": "uint256"
            },
            {
              "internalType": "bool",
              "name": "claimed",
              "type": "bool"
            },
            {
              "internalType": "address",
              "name": "winner",
              "type": "address"
            },
            {
              "internalType": "string",
              "name": "description",
              "type": "string"
            }
          ],
          "internalType": "struct OptimisticOracle.EventAssertion",
          "name": "",
          "type": "tuple"
        }
      ],
      "stateMutability": "view",
      "type": "function"
    },
    {
      "inputs": [
        {
          "internalType": "uint256",
          "name": "assertionId",
          "type": "uint256"
        }
      ],
      "name": "getResolution",
      "outputs": [
        {
          "internalType": "bool",
          "name": "",
          "type": "bool"
        }
      ],
      "stateMutability": "view",
      "type": "function"
    },
    {
      "inputs": [
        {
          "internalType": "uint256",
          "name": "assertionId",
          "type": "uint256"
        }
      ],
      "name": "getState",
      "outputs": [
        {
          "internalType": "enum OptimisticOracle.State",
          "name": "",
          "type": "uint8"
        }
      ],
      "stateMutability": "view",
      "type": "function"
    },
    {
      "inputs": [],
      "name": "nextAssertionId",
      "outputs": [
        {
          "internalType": "uint256",
          "name": "",
          "type": "uint256"
        }
      ],
      "stateMutability": "view",
      "type": "function"
    },
    {
      "inputs": [],
      "name": "owner",
      "outputs": [
        {
          "internalType": "address",
          "name": "",
          "type": "address"
        }
      ],
      "stateMutability": "view",
      "type": "function"
    },
    {
      "inputs": [
        {
          "internalType": "uint256",
          "name": "assertionId",
          "type": "uint256"
        },
        {
          "internalType": "bool",
          "name": "outcome",
          "type": "bool"
        }
      ],
      "name": "proposeOutcome",
      "outputs": [],
      "stateMutability": "payable",
      "type": "function"
    },
    {
      "inputs": [
        {
          "internalType": "address",
          "name": "_decider",
          "type": "address"
        }
      ],
      "name": "setDecider",
      "outputs": [],
      "stateMutability": "nonpayable",
      "type": "function"
    },
    {
      "inputs": [
        {
          "internalType": "uint256",
          "name": "assertionId",
          "type": "uint256"
        },
        {
          "internalType": "bool",
          "name": "resolvedOutcome",
          "type": "bool"
        }
      ],
      "name": "settleAssertion",
      "outputs": [],
      "stateMutability": "nonpayable",
      "type": "function"
    }
  ],
  "transactionHash": "0xb8cb3bcbb1effc6bd16368baf60c9389a102302e4653f57e3e2e6fc21ab21c48",
  "args": [
    "0x30616713799314b77a3AfcC37E4b645D16368011"
  ],
  "numDeployments": 1,
  "solcInputHash": "ce4589ba21cbf88ac37e79eeebea9582",
  "bytecode": "0x6080604052600160025534801561001557600080fd5b5060405161195b38038061195b83398101604081905261003491610062565b600080546001600160a01b039092166001600160a01b03199283161790556001805490911633179055610092565b60006020828403121561007457600080fd5b81516001600160a01b038116811461008b57600080fd5b9392505050565b6118ba806100a16000396000f3fe6080604052600436106100fe5760003560e01c806388553a2a11610095578063d21a727d11610064578063d21a727d146102aa578063d565a533146102ca578063db4295b7146102fa578063f585dc571461015b578063fc6def151461031a57600080fd5b806388553a2a146102395780638da5cb5b1461024c578063a9809c2b14610284578063b40b6d001461029757600080fd5b80634d7ba587116100d15780634d7ba587146101ab578063524232f6146101cb5780635b366bb9146102035780635b7baf641461021957600080fd5b806302f5ee7e146101035780631d99e167146101255780632db4f2331461015b57806344c9af281461017e575b600080fd5b34801561010f57600080fd5b5061012361011e36600461135b565b61033a565b005b34801561013157600080fd5b5061014561014036600461135b565b6104f3565b60405161015291906113ba565b60405180910390f35b34801561016757600080fd5b5061017060b481565b604051908152602001610152565b34801561018a57600080fd5b5061019e61019936600461135b565b6106a8565b60405161015291906114a7565b3480156101b757600080fd5b506101236101c63660046114cf565b610759565b3480156101d757600080fd5b506101eb6101e636600461135b565b6107e6565b6040516101529c9b9a999897969594939291906114ff565b34801561020f57600080fd5b5061017060025481565b34801561022557600080fd5b5061012361023436600461135b565b6108e9565b610123610247366004611585565b610a47565b34801561025857600080fd5b5060015461026c906001600160a01b031681565b6040516001600160a01b039091168152602001610152565b61012361029236600461135b565b610b8c565b6101706102a53660046115d0565b610c88565b3480156102b657600080fd5b506101236102c536600461135b565b610efe565b3480156102d657600080fd5b506102ea6102e536600461135b565b61112c565b6040519015158152602001610152565b34801561030657600080fd5b50610123610315366004611585565b611221565b34801561032657600080fd5b5060005461026c906001600160a01b031681565b600081815260036020526040902060028101546001600160a01b0316156103745760405163ac9725ff60e01b815260040160405180910390fd5b80600601544211610398576040516337bf561360e11b815260040160405180910390fd5b600781015460ff16156103be57604051630c8d9eab60e31b815260040160405180910390fd5b600781018054600283018054600160a01b810460ff161515600160a81b0260ff60a81b199091161790556001838101546001600160a01b0316610100026001600160a81b03199092169190911717905560048101546003820154600091610424916116aa565b60018301546040519192506000916001600160a01b039091169083908381818185875af1925050503d8060008114610478576040519150601f19603f3d011682016040523d82523d6000602084013e61047d565b606091505b505090508061049f576040516312171d8360e31b815260040160405180910390fd5b6001830154604080518681526001600160a01b03909216602083015281018390527f24b5efa61dd1cfc659205a97fb8ed868f3cb8c81922bab2b96423e5de1de2cb79060600160405180910390a150505050565b604080516101808101825260008082526020820181905291810182905260608082018390526080820183905260a0820183905260c0820183905260e082018390526101008201839052610120820183905261014082019290925261016081019190915260008281526003602081815260409283902083516101808101855281546001600160a01b039081168252600183015481169382019390935260028201548084169582019590955260ff600160a01b8604811615156060830152600160a81b9095048516151560808201529281015460a0840152600481015460c0840152600581015460e084015260068101546101008085019190915260078201549485161515610120850152909304166101408201526008820180549192916101608401919061061f906116c3565b80601f016020809104026020016040519081016040528092919081815260200182805461064b906116c3565b80156106985780601f1061066d57610100808354040283529160200191610698565b820191906000526020600020905b81548152906001019060200180831161067b57829003601f168201915b5050505050815250509050919050565b600081815260036020526040812080546001600160a01b03166106ce5750600092915050565b600781015461010090046001600160a01b0316156106ef5750600492915050565b60028101546001600160a01b03161561070b5750600392915050565b60018101546001600160a01b031661073b5780600601544211156107325750600592915050565b50600192915050565b80600601544211156107505750600492915050565b50600292915050565b6001546001600160a01b0316331461078457604051635fc483c560e01b815260040160405180910390fd5b600080546001600160a01b038381166001600160a01b031983168117909355604080519190921680825260208201939093527f44b195f672f12d3150e8ec40f5b2be271828f1e7be16b3a55e61f7a2c53efc3d91015b60405180910390a15050565b60036020819052600091825260409091208054600182015460028301549383015460048401546005850154600686015460078701546008880180546001600160a01b039889169a97891699888a169960ff600160a01b8b0481169a600160a81b9004811699989796959081169461010090910490911692610866906116c3565b80601f0160208091040260200160405190810160405280929190818152602001828054610892906116c3565b80156108df5780601f106108b4576101008083540402835291602001916108df565b820191906000526020600020905b8154815290600101906020018083116108c257829003601f168201915b505050505090508c565b600081815260036020526040902060018101546001600160a01b0316156109235760405163062989cf60e11b815260040160405180910390fd5b80600601544211610947576040516337bf561360e11b815260040160405180910390fd5b600781015460ff161561096d57604051630c8d9eab60e31b815260040160405180910390fd5b60078101805460ff19166001179055805460038201546040516000926001600160a01b031691908381818185875af1925050503d80600081146109cc576040519150601f19603f3d011682016040523d82523d6000602084013e6109d1565b606091505b50509050806109f3576040516312171d8360e31b815260040160405180910390fd5b81546003830154604080518681526001600160a01b0390931660208401528201527ff3f402280ef0a7905e124aa621b65eaeb2725c343e8b36d398ed78c29daf285c906060015b60405180910390a1505050565b600082815260036020526040902080546001600160a01b0316610a7d576040516325f67a0760e21b815260040160405180910390fd5b60018101546001600160a01b031615610aa95760405163062989cf60e11b815260040160405180910390fd5b8060050154421080610abe5750806006015442115b15610adc576040516337bf561360e11b815260040160405180910390fd5b80600401543414610b0057604051632a9ffab760e21b815260040160405180910390fd5b6001810180546001600160a01b03191633179055600281018054831515600160a01b0260ff60a01b19909116179055610b3a60b4426116aa565b60068201556001810154604080518581526001600160a01b039092166020830152831515908201527f2e97f40e66e2eaaa8ae31d3f66dfc8a18edb91c0bc70080dae0241aabc85f52b90606001610a3a565b600081815260036020526040902060018101546001600160a01b0316610bc557604051638a83969360e01b815260040160405180910390fd5b60028101546001600160a01b031615610bf15760405163ac9725ff60e01b815260040160405180910390fd5b8060060154421115610c16576040516337bf561360e11b815260040160405180910390fd5b80600401543414610c3a57604051632a9ffab760e21b815260040160405180910390fd5b6002810180546001600160a01b031916339081179091556040805184815260208101929092527f4d1c7c2acc2af4568b065391bf84e3526ed432777f4780c7c92956c68198cd4c91016107da565b600082600003610c96574292505b81600003610cac57610ca960b4846116aa565b91505b34600003610ccd57604051632a9ffab760e21b815260040160405180910390fd5b42831015610cee576040516337bf561360e11b815260040160405180910390fd5b60b4610cfa84846116f7565b1015610d19576040516337bf561360e11b815260040160405180910390fd5b604080516101808101825233815260006020820181905291810182905260608101829052608081018290523460a0820181905260c0820190610d5c90600261170a565b81526020808201879052604080830187905260006060808501829052608080860183905260a09586018c9052600280548452600380875293859020885181546001600160a01b03199081166001600160a01b03928316178355978a01516001830180549099169082161790975594880151908501805493890151928901519187166001600160a81b031994851617600160a01b931515939093029290921760ff60a81b1916600160a81b91151591909102179055938501519082015560c0840151600482015560e084015160058201556101008085015160068301556101208501516007830180546101408801519616911515610100600160a81b03191691909117949093160292909217905561016082015191925082916008820190610e839082611770565b50506002805491506000610e9683611830565b91905055507f4accbd7d2745189087b035e2702b3c41835f88430aa9adb958627224c1cbb3216001600254610ecb91906116f7565b338734604051610ede9493929190611849565b60405180910390a16001600254610ef591906116f7565b95945050505050565b600081815260036020526040902060018101546001600160a01b0316610f3757604051638a83969360e01b815260040160405180910390fd5b60028101546001600160a01b0316610f625760405163e8ac3fab60e01b815260040160405180910390fd5b600781015461010090046001600160a01b0316610f9257604051630b4132af60e41b815260040160405180910390fd5b600781015460ff1615610fb857604051630c8d9eab60e31b815260040160405180910390fd5b60078101805460ff191660011790556000805460048301546040516001600160a01b03909216918381818185875af1925050503d8060008114611017576040519150601f19603f3d011682016040523d82523d6000602084013e61101c565b606091505b505090508061103e576040516312171d8360e31b815260040160405180910390fd5b60008260040154836003015461105491906116aa565b60078401546040519192506000916101009091046001600160a01b03169083908381818185875af1925050503d80600081146110ac576040519150601f19603f3d011682016040523d82523d6000602084013e6110b1565b606091505b50509050806110d3576040516312171d8360e31b815260040160405180910390fd5b6007840154604080518781526101009092046001600160a01b0316602083015281018390527f24b5efa61dd1cfc659205a97fb8ed868f3cb8c81922bab2b96423e5de1de2cb79060600160405180910390a15050505050565b600081815260036020526040812080546001600160a01b0316611162576040516325f67a0760e21b815260040160405180910390fd5b60018101546001600160a01b031661118d57604051638a83969360e01b815260040160405180910390fd5b60028101546001600160a01b03166111d757806006015442116111c3576040516337bf561360e11b815260040160405180910390fd5b60020154600160a01b900460ff1692915050565b600781015461010090046001600160a01b031661120757604051630b4132af60e41b815260040160405180910390fd5b60020154600160a81b900460ff1692915050565b50919050565b6000546001600160a01b0316331461124c57604051631bc723a960e31b815260040160405180910390fd5b600082815260036020526040902060018101546001600160a01b031661128557604051638a83969360e01b815260040160405180910390fd5b60028101546001600160a01b03166112b05760405163e8ac3fab60e01b815260040160405180910390fd5b8060020160149054906101000a900460ff161515821515146112df5760028101546001600160a01b03166112ee565b60018101546001600160a01b03165b600782018054610100600160a81b0319166101006001600160a01b039384168102919091179182905560408051878152861515602082015291909204909216908201527f27f6caee7bcd705e478ea4783620995916b1b3d562d683c8932a0c5d5998d95890606001610a3a565b60006020828403121561136d57600080fd5b5035919050565b6000815180845260005b8181101561139a5760208185018101518683018201520161137e565b506000602082860101526020601f19601f83011685010191505092915050565b602081526113d46020820183516001600160a01b03169052565b600060208301516113f060408401826001600160a01b03169052565b5060408301516001600160a01b0381166060840152506060830151801515608084015250608083015180151560a08401525060a083015160c083015260c083015160e083015260e08301516101008181850152808501519150506101208181850152808501519150506101406114698185018315159052565b8401519050610160611485848201836001600160a01b03169052565b84015161018084810152905061149f6101a0840182611374565b949350505050565b60208101600683106114c957634e487b7160e01b600052602160045260246000fd5b91905290565b6000602082840312156114e157600080fd5b81356001600160a01b03811681146114f857600080fd5b9392505050565b6001600160a01b038d811682528c811660208301528b811660408301528a15156060830152891515608083015260a0820189905260c0820188905260e08201879052610100820186905284151561012083015283166101408201526000610180610160830152611573610180830184611374565b9e9d5050505050505050505050505050565b6000806040838503121561159857600080fd5b82359150602083013580151581146115af57600080fd5b809150509250929050565b634e487b7160e01b600052604160045260246000fd5b6000806000606084860312156115e557600080fd5b833567ffffffffffffffff808211156115fd57600080fd5b818601915086601f83011261161157600080fd5b813581811115611623576116236115ba565b604051601f8201601f19908116603f0116810190838211818310171561164b5761164b6115ba565b8160405282815289602084870101111561166457600080fd5b82602086016020830137600060208483010152809750505050505060208401359150604084013590509250925092565b634e487b7160e01b600052601160045260246000fd5b808201808211156116bd576116bd611694565b92915050565b600181811c908216806116d757607f821691505b60208210810361121b57634e487b7160e01b600052602260045260246000fd5b818103818111156116bd576116bd611694565b80820281158282048414176116bd576116bd611694565b601f82111561176b57600081815260208120601f850160051c810160208610156117485750805b601f850160051c820191505b8181101561176757828155600101611754565b5050505b505050565b815167ffffffffffffffff81111561178a5761178a6115ba565b61179e8161179884546116c3565b84611721565b602080601f8311600181146117d357600084156117bb5750858301515b600019600386901b1c1916600185901b178555611767565b600085815260208120601f198616915b82811015611802578886015182559484019460019091019084016117e3565b50858210156118205787850151600019600388901b60f8161c191681555b5050505050600190811b01905550565b60006001820161184257611842611694565b5060010190565b8481526001600160a01b038416602082015260806040820181905260009061187390830185611374565b90508260608301529594505050505056fea2646970667358221220cab56ccae9f97542470a9064609e22e4781ad0ceb609d0970d21ca7c4ad63ff764736f6c63430008140033",
  "devdoc": {
    "kind": "dev",
    "methods": {
      "assertEvent(string,uint256,uint256)": {
        "details": "Requires ETH payment as reward for correct proposers. Bond requirement is 2x the reward.      Sets default timestamps if not provided. Validates timing requirements.",
        "params": {
          "description": "Human-readable description of the event (e.g. \"Did X happen by time Y?\")",
          "endTime": "When the assertion expires (0 for startTime + minimum window)",
          "startTime": "When proposals can begin (0 for current block timestamp)"
        },
        "returns": {
          "_0": "The unique assertion ID for the newly created assertion"
        }
      },
      "claimDisputedReward(uint256)": {
        "details": "Anyone can trigger this function. Pays decider fee and transfers remaining rewards to winner.      Can only be called after decider has settled the dispute.",
        "params": {
          "assertionId": "The unique identifier of the disputed assertion to claim rewards for"
        }
      },
      "claimRefund(uint256)": {
        "details": "Anyone can trigger this function. Returns the original reward to the asserter.      Can only be called after assertion deadline has passed without any proposals.",
        "params": {
          "assertionId": "The unique identifier of the expired assertion to claim refund for"
        }
      },
      "claimUndisputedReward(uint256)": {
        "details": "Anyone can trigger this function. Transfers reward + bond to the proposer.      Can only be called after dispute window has passed without disputes.",
        "params": {
          "assertionId": "The unique identifier of the assertion to claim rewards for"
        }
      },
      "disputeOutcome(uint256)": {
        "details": "Requires bonding ETH equal to the bond amount. Can only dispute once per assertion      and must be within the dispute window after proposal.",
        "params": {
          "assertionId": "The unique identifier of the assertion to dispute"
        }
      },
      "getAssertion(uint256)": {
        "details": "Provides access to all fields of the EventAssertion struct",
        "params": {
          "assertionId": "The unique identifier of the assertion to retrieve"
        },
        "returns": {
          "_0": "The complete EventAssertion struct containing all assertion data"
        }
      },
      "getResolution(uint256)": {
        "details": "For undisputed assertions, returns the proposed outcome after dispute window.      For disputed assertions, returns the decider's resolved outcome.",
        "params": {
          "assertionId": "The unique identifier of the assertion to get resolution for"
        },
        "returns": {
          "_0": "The final boolean outcome of the assertion"
        }
      },
      "getState(uint256)": {
        "details": "Evaluates assertion progress through states: Invalid, Asserted, Proposed, Disputed, Settled, Expired",
        "params": {
          "assertionId": "The unique identifier of the assertion to check state for"
        },
        "returns": {
          "_0": "The current State enum value representing the assertion's status"
        }
      },
      "proposeOutcome(uint256,bool)": {
        "details": "Requires bonding ETH equal to 2x the original reward. Sets dispute window deadline.      Can only be called once per assertion and within the assertion time window.",
        "params": {
          "assertionId": "The unique identifier of the assertion to propose an outcome for",
          "outcome": "The proposed boolean outcome (true or false) for the event"
        }
      },
      "setDecider(address)": {
        "details": "Changes the address authorized to settle disputed assertions.      Emits DeciderUpdated event with old and new addresses.",
        "params": {
          "_decider": "The new address that will act as decider for disputed assertions"
        }
      },
      "settleAssertion(uint256,bool)": {
        "details": "Sets the resolved outcome and determines winner based on proposal accuracy.",
        "params": {
          "assertionId": "The unique identifier of the disputed assertion to settle",
          "resolvedOutcome": "The decider's determination of the true outcome"
        }
      }
    },
    "version": 1
  },
  "userdoc": {
    "errors": {
      "AssertionNotFound()": [
        {
          "notice": "Errors //////"
        }
      ]
    },
    "events": {
      "EventAsserted(uint256,address,string,uint256)": {
        "notice": "Events /////"
      }
    },
    "kind": "user",
    "methods": {
      "assertEvent(string,uint256,uint256)": {
        "notice": "Creates a new assertion about an event with a true/false outcome"
      },
      "claimDisputedReward(uint256)": {
        "notice": "Claims reward for disputed assertions after decider settlement"
      },
      "claimRefund(uint256)": {
        "notice": "Claims refund for assertions that receive no proposals before deadline"
      },
      "claimUndisputedReward(uint256)": {
        "notice": "Claims reward for undisputed assertions after dispute window expires"
      },
      "constructor": {
        "notice": "Constructor ///"
      },
      "disputeOutcome(uint256)": {
        "notice": "Disputes a proposed outcome by bonding ETH"
      },
      "getAssertion(uint256)": {
        "notice": "Returns the complete assertion details for a given assertion ID"
      },
      "getResolution(uint256)": {
        "notice": "Returns the final resolved outcome of a settled assertion"
      },
      "getState(uint256)": {
        "notice": "Returns the current state of an assertion based on its lifecycle stage"
      },
      "proposeOutcome(uint256,bool)": {
        "notice": "Proposes the outcome (true or false) for an asserted event"
      },
      "setDecider(address)": {
        "notice": "Updates the decider address (only contract owner)"
      },
      "settleAssertion(uint256,bool)": {
        "notice": "Resolves disputed assertions by determining the correct outcome (only decider)"
      }
    },
    "version": 1
  },
  "storageLayout": {
    "storage": [
      {
        "astId": 70,
        "contract": "contracts/02_Optimistic/OptimisticOracle.sol:OptimisticOracle",
        "label": "decider",
        "offset": 0,
        "slot": "0",
        "type": "t_address"
      },
      {
        "astId": 72,
        "contract": "contracts/02_Optimistic/OptimisticOracle.sol:OptimisticOracle",
        "label": "owner",
        "offset": 0,
        "slot": "1",
        "type": "t_address"
      },
      {
        "astId": 75,
        "contract": "contracts/02_Optimistic/OptimisticOracle.sol:OptimisticOracle",
        "label": "nextAssertionId",
        "offset": 0,
        "slot": "2",
        "type": "t_uint256"
      },
      {
        "astId": 80,
        "contract": "contracts/02_Optimistic/OptimisticOracle.sol:OptimisticOracle",
        "label": "assertions",
        "offset": 0,
        "slot": "3",
        "type": "t_mapping(t_uint256,t_struct(EventAssertion)62_storage)"
      }
    ],
    "types": {
      "t_address": {
        "encoding": "inplace",
        "label": "address",
        "numberOfBytes": "20"
      },
      "t_bool": {
        "encoding": "inplace",
        "label": "bool",
        "numberOfBytes": "1"
      },
      "t_mapping(t_uint256,t_struct(EventAssertion)62_storage)": {
        "encoding": "mapping",
        "key": "t_uint256",
        "label": "mapping(uint256 => struct OptimisticOracle.EventAssertion)",
        "numberOfBytes": "32",
        "value": "t_struct(EventAssertion)62_storage"
      },
      "t_string_storage": {
        "encoding": "bytes",
        "label": "string",
        "numberOfBytes": "32"
      },
      "t_struct(EventAssertion)62_storage": {
        "encoding": "inplace",
        "label": "struct OptimisticOracle.EventAssertion",
        "members": [
          {
            "astId": 39,
            "contract": "contracts/02_Optimistic/OptimisticOracle.sol:OptimisticOracle",
            "label": "asserter",
            "offset": 0,
            "slot": "0",
            "type": "t_address"
          },
          {
            "astId": 41,
            "contract": "contracts/02_Optimistic/OptimisticOracle.sol:OptimisticOracle",
            "label": "proposer",
            "offset": 0,
            "slot": "1",
            "type": "t_address"
          },
          {
            "astId": 43,
            "contract": "contracts/02_Optimistic/OptimisticOracle.sol:OptimisticOracle",
            "label": "disputer",
            "offset": 0,
            "slot": "2",
            "type": "t_address"
          },
          {
            "astId": 45,
            "contract": "contracts/02_Optimistic/OptimisticOracle.sol:OptimisticOracle",
            "label": "proposedOutcome",
            "offset": 20,
            "slot": "2",
            "type": "t_bool"
          },
          {
            "astId": 47,
            "contract": "contracts/02_Optimistic/OptimisticOracle.sol:OptimisticOracle",
            "label": "resolvedOutcome",
            "offset": 21,
            "slot": "2",
            "type": "t_bool"
          },
          {
            "astId": 49,
            "contract": "contracts/02_Optimistic/OptimisticOracle.sol:OptimisticOracle",
            "label": "reward",
            "offset": 0,
            "slot": "3",
            "type": "t_uint256"
          },
          {
            "astId": 51,
            "contract": "contracts/02_Optimistic/OptimisticOracle.sol:OptimisticOracle",
            "label": "bond",
            "offset": 0,
            "slot": "4",
            "type": "t_uint256"
          },
          {
            "astId": 53,
            "contract": "contracts/02_Optimistic/OptimisticOracle.sol:OptimisticOracle",
            "label": "startTime",
            "offset": 0,
            "slot": "5",
            "type": "t_uint256"
          },
          {
            "astId": 55,
            "contract": "contracts/02_Optimistic/OptimisticOracle.sol:OptimisticOracle",
            "label": "endTime",
            "offset": 0,
            "slot": "6",
            "type": "t_uint256"
          },
          {
            "astId": 57,
            "contract": "contracts/02_Optimistic/OptimisticOracle.sol:OptimisticOracle",
            "label": "claimed",
            "offset": 0,
            "slot": "7",
            "type": "t_bool"
          },
          {
            "astId": 59,
            "contract": "contracts/02_Optimistic/OptimisticOracle.sol:OptimisticOracle",
            "label": "winner",
            "offset": 1,
            "slot": "7",
            "type": "t_address"
          },
          {
            "astId": 61,
            "contract": "contracts/02_Optimistic/OptimisticOracle.sol:OptimisticOracle",
            "label": "description",
            "offset": 0,
            "slot": "8",
            "type": "t_string_storage"
          }
        ],
        "numberOfBytes": "288"
      },
      "t_uint256": {
        "encoding": "inplace",
        "label": "uint256",
        "numberOfBytes": "32"
      }
    }
  }
}