{
  "address": "0x35211b9794876AB89E7D44927e31b73295D7a606",
  "abi": [
    {
      "inputs": [],
      "stateMutability": "nonpayable",
      "type": "constructor"
    },
    {
      "inputs": [
        {
          "internalType": "address",
          "name": "spender",
          "type": "address"
        },
        {
          "internalType": "uint256",
          "name": "allowance",
          "type": "uint256"
        },
        {
          "internalType": "uint256",
          "name": "needed",
          "type": "uint256"
        }
      ],
      "name": "ERC20InsufficientAllowance",
      "type": "error"
    },
    {
      "inputs": [
        {
          "internalType": "address",
          "name": "sender",
          "type": "address"
        },
        {
          "internalType": "uint256",
          "name": "balance",
          "type": "uint256"
        },
        {
          "internalType": "uint256",
          "name": "needed",
          "type": "uint256"
        }
      ],
      "name": "ERC20InsufficientBalance",
      "type": "error"
    },
    {
      "inputs": [
        {
          "internalType": "address",
          "name": "approver",
          "type": "address"
        }
      ],
      "name": "ERC20InvalidApprover",
      "type": "error"
    },
    {
      "inputs": [
        {
          "internalType": "address",
          "name": "receiver",
          "type": "address"
        }
      ],
      "name": "ERC20InvalidReceiver",
      "type": "error"
    },
    {
      "inputs": [
        {
          "internalType": "address",
          "name": "sender",
          "type": "address"
        }
      ],
      "name": "ERC20InvalidSender",
      "type": "error"
    },
    {
      "inputs": [
        {
          "internalType": "address",
          "name": "spender",
          "type": "address"
        }
      ],
      "name": "ERC20InvalidSpender",
      "type": "error"
    },
    {
      "inputs": [],
      "name": "EthTransferFailed",
      "type": "error"
    },
    {
      "inputs": [
        {
          "internalType": "address",
          "name": "owner",
          "type": "address"
        }
      ],
      "name": "OwnableInvalidOwner",
      "type": "error"
    },
    {
      "inputs": [
        {
          "internalType": "address",
          "name": "account",
          "type": "address"
        }
      ],
      "name": "OwnableUnauthorizedAccount",
      "type": "error"
    },
    {
      "anonymous": false,
      "inputs": [
        {
          "indexed": true,
          "internalType": "address",
          "name": "owner",
          "type": "address"
        },
        {
          "indexed": true,
          "internalType": "address",
          "name": "spender",
          "type": "address"
        },
        {
          "indexed": false,
          "internalType": "uint256",
          "name": "value",
          "type": "uint256"
        }
      ],
      "name": "Approval",
      "type": "event"
    },
    {
      "anonymous": false,
      "inputs": [
        {
          "indexed": true,
          "internalType": "address",
          "name": "to",
          "type": "address"
        },
        {
          "indexed": false,
          "internalType": "uint256",
          "name": "amount",
          "type": "uint256"
        }
      ],
      "name": "EthWithdrawn",
      "type": "event"
    },
    {
      "anonymous": false,
      "inputs": [
        {
          "indexed": true,
          "internalType": "address",
          "name": "buyer",
          "type": "address"
        },
        {
          "indexed": false,
          "internalType": "uint256",
          "name": "ethIn",
          "type": "uint256"
        },
        {
          "indexed": false,
          "internalType": "uint256",
          "name": "oraOut",
          "type": "uint256"
        }
      ],
      "name": "OraPurchased",
      "type": "event"
    },
    {
      "anonymous": false,
      "inputs": [
        {
          "indexed": true,
          "internalType": "address",
          "name": "previousOwner",
          "type": "address"
        },
        {
          "indexed": true,
          "internalType": "address",
          "name": "newOwner",
          "type": "address"
        }
      ],
      "name": "OwnershipTransferred",
      "type": "event"
    },
    {
      "anonymous": false,
      "inputs": [
        {
          "indexed": true,
          "internalType": "address",
          "name": "from",
          "type": "address"
        },
        {
          "indexed": true,
          "internalType": "address",
          "name": "to",
          "type": "address"
        },
        {
          "indexed": false,
          "internalType": "uint256",
          "name": "value",
          "type": "uint256"
        }
      ],
      "name": "Transfer",
      "type": "event"
    },
    {
      "inputs": [],
      "name": "ORA_PER_ETH",
      "outputs": [
        {
          "internalType": "uint256",
          "name": "",
          "type": "uint256"
        }
      ],
      "stateMutability": "view",
      "type": "function"
    },
    {
      "inputs": [
        {
          "internalType": "address",
          "name": "owner",
          "type": "address"
        },
        {
          "internalType": "address",
          "name": "spender",
          "type": "address"
        }
      ],
      "name": "allowance",
      "outputs": [
        {
          "internalType": "uint256",
          "name": "",
          "type": "uint256"
        }
      ],
      "stateMutability": "view",
      "type": "function"
    },
    {
      "inputs": [
        {
          "internalType": "address",
          "name": "spender",
          "type": "address"
        },
        {
          "internalType": "uint256",
          "name": "value",
          "type": "uint256"
        }
      ],
      "name": "approve",
      "outputs": [
        {
          "internalType": "bool",
          "name": "",
          "type": "bool"
        }
      ],
      "stateMutability": "nonpayable",
      "type": "function"
    },
    {
      "inputs": [
        {
          "internalType": "address",
          "name": "account",
          "type": "address"
        }
      ],
      "name": "balanceOf",
      "outputs": [
        {
          "internalType": "uint256",
          "name": "",
          "type": "uint256"
        }
      ],
      "stateMutability": "view",
      "type": "function"
    },
    {
      "inputs": [
        {
          "internalType": "uint256",
          "name": "amount",
          "type": "uint256"
        }
      ],
      "name": "burn",
      "outputs": [],
      "stateMutability": "nonpayable",
      "type": "function"
    },
    {
      "inputs": [],
      "name": "buy",
      "outputs": [],
      "stateMutability": "payable",
      "type": "function"
    },
    {
      "inputs": [],
      "name": "decimals",
      "outputs": [
        {
          "internalType": "uint8",
          "name": "",
          "type": "uint8"
        }
      ],
      "stateMutability": "view",
      "type": "function"
    },
    {
      "inputs": [
        {
          "internalType": "address",
          "name": "to",
          "type": "address"
        },
        {
          "internalType": "uint256",
          "name": "amount",
          "type": "uint256"
        }
      ],
      "name": "mint",
      "outputs": [],
      "stateMutability": "nonpayable",
      "type": "function"
    },
    {
      "inputs": [],
      "name": "name",
      "outputs": [
        {
          "internalType": "string",
          "name": "",
          "type": "string"
        }
      ],
      "stateMutability": "view",
      "type": "function"
    },
    {
      "inputs": [],
      "name": "owner",
      "outputs": [
        {
          "internalType": "address",
          "name": "",
          "type": "address"
        }
      ],
      "stateMutability": "view",
      "type": "function"
    },
    {
      "inputs": [
        {
          "internalType": "uint256",
          "name": "ethAmountWei",
          "type": "uint256"
        }
      ],
      "name": "quoteOra",
      "outputs": [
        {
          "internalType": "uint256",
          "name": "",
          "type": "uint256"
        }
      ],
      "stateMutability": "pure",
      "type": "function"
    },
    {
      "inputs": [],
      "name": "renounceOwnership",
      "outputs": [],
      "stateMutability": "nonpayable",
      "type": "function"
    },
    {
      "inputs": [],
      "name": "symbol",
      "outputs": [
        {
          "internalType": "string",
          "name": "",
          "type": "string"
        }
      ],
      "stateMutability": "view",
      "type": "function"
    },
    {
      "inputs": [],
      "name": "totalSupply",
      "outputs": [
        {
          "internalType": "uint256",
          "name": "",
          "type": "uint256"
        }
      ],
      "stateMutability": "view",
      "type": "function"
    },
    {
      "inputs": [
        {
          "internalType": "address",
          "name": "to",
          "type": "address"
        },
        {
          "internalType": "uint256",
          "name": "value",
          "type": "uint256"
        }
      ],
      "name": "transfer",
      "outputs": [
        {
          "internalType": "bool",
          "name": "",
          "type": "bool"
        }
      ],
      "stateMutability": "nonpayable",
      "type": "function"
    },
    {
      "inputs": [
        {
          "internalType": "address",
          "name": "from",
          "type": "address"
        },
        {
          "internalType": "address",
          "name": "to",
          "type": "address"
        },
        {
          "internalType": "uint256",
          "name": "value",
          "type": "uint256"
        }
      ],
      "name": "transferFrom",
      "outputs": [
        {
          "internalType": "bool",
          "name": "",
          "type": "bool"
        }
      ],
      "stateMutability": "nonpayable",
      "type": "function"
    },
    {
      "inputs": [
        {
          "internalType": "address",
          "name": "newOwner",
          "type": "address"
        }
      ],
      "name": "transferOwnership",
      "outputs": [],
      "stateMutability": "nonpayable",
      "type": "function"
    },
    {
      "stateMutability": "payable",
      "type": "receive"
    }
  ],
  "transactionHash": "0xe3961222be3ee63d0eb7b1db692886c795f86c1e688d389aec365e6a4143509c",
  "args": [],
  "numDeployments": 1,
  "solcInputHash": "9fcc1190b90bc26fb4272727bfdaa3b9",
  "bytecode": "0x60806040523480156200001157600080fd5b50336040518060400160405280600c81526020016b27b930b1b632902a37b5b2b760a11b815250604051806040016040528060038152602001624f524160e81b81525081600390816200006591906200033a565b5060046200007482826200033a565b5050506001600160a01b038116620000a757604051631e4fbdf760e01b8152600060048201526024015b60405180910390fd5b620000b281620000d2565b50620000cc336c0c9f2c9cd04674edea4000000062000124565b6200042e565b600580546001600160a01b038381166001600160a01b0319831681179093556040519116919082907f8be0079c531659141344cd1fd0a4f28419497f9722a3daafe3b4186f6b6457e090600090a35050565b6001600160a01b038216620001505760405163ec442f0560e01b8152600060048201526024016200009e565b6200015e6000838362000162565b5050565b6001600160a01b0383166200019157806002600082825462000185919062000406565b90915550620002059050565b6001600160a01b03831660009081526020819052604090205481811015620001e65760405163391434e360e21b81526001600160a01b038516600482015260248101829052604481018390526064016200009e565b6001600160a01b03841660009081526020819052604090209082900390555b6001600160a01b038216620002235760028054829003905562000242565b6001600160a01b03821660009081526020819052604090208054820190555b816001600160a01b0316836001600160a01b03167fddf252ad1be2c89b69c2b068fc378daa952ba7f163c4a11628f55a4df523b3ef836040516200028891815260200190565b60405180910390a3505050565b634e487b7160e01b600052604160045260246000fd5b600181811c90821680620002c057607f821691505b602082108103620002e157634e487b7160e01b600052602260045260246000fd5b50919050565b601f8211156200033557600081815260208120601f850160051c81016020861015620003105750805b601f850160051c820191505b8181101562000331578281556001016200031c565b5050505b505050565b81516001600160401b0381111562000356576200035662000295565b6200036e81620003678454620002ab565b84620002e7565b602080601f831160018114620003a657600084156200038d5750858301515b600019600386901b1c1916600185901b17855562000331565b600085815260208120601f198616915b82811015620003d757888601518255948401946001909101908401620003b6565b5085821015620003f65787850151600019600388901b60f8161c191681555b5050505050600190811b01905550565b808201808211156200042857634e487b7160e01b600052601160045260246000fd5b92915050565b610af8806200043e6000396000f3fe6080604052600436106101025760003560e01c806370a0823111610095578063a6f2ae3a11610064578063a6f2ae3a146102b5578063a9059cbb146102bd578063b1b695d1146102dd578063dd62ed3e146102f2578063f2fde38b1461033857600080fd5b806370a082311461022d578063715018a6146102635780638da5cb5b1461027857806395d89b41146102a057600080fd5b806328287be7116100d157806328287be7146101b1578063313ce567146101d157806340c10f19146101ed57806342966c681461020d57600080fd5b806306fdde0314610117578063095ea7b31461014257806318160ddd1461017257806323b872dd1461019157600080fd5b366101125761011033610358565b005b600080fd5b34801561012357600080fd5b5061012c6103b7565b604051610139919061090a565b60405180910390f35b34801561014e57600080fd5b5061016261015d366004610974565b610449565b6040519015158152602001610139565b34801561017e57600080fd5b506002545b604051908152602001610139565b34801561019d57600080fd5b506101626101ac36600461099e565b610463565b3480156101bd57600080fd5b506101836101cc3660046109da565b610487565b3480156101dd57600080fd5b5060405160128152602001610139565b3480156101f957600080fd5b50610110610208366004610974565b610494565b34801561021957600080fd5b506101106102283660046109da565b6104aa565b34801561023957600080fd5b506101836102483660046109f3565b6001600160a01b031660009081526020819052604090205490565b34801561026f57600080fd5b506101106104b7565b34801561028457600080fd5b506005546040516001600160a01b039091168152602001610139565b3480156102ac57600080fd5b5061012c6104cb565b6101106104da565b3480156102c957600080fd5b506101626102d8366004610974565b6104e3565b3480156102e957600080fd5b5061018360c881565b3480156102fe57600080fd5b5061018361030d366004610a15565b6001600160a01b03918216600090815260016020908152604080832093909416825291909152205490565b34801561034457600080fd5b506101106103533660046109f3565b6104f1565b600061036334610487565b905061036f8282610531565b60408051348152602081018390526001600160a01b038416917f537d1e9d6fc4822b0b8a656ec5c9f2b9e5fe45410189df54a23a370720b29eed910160405180910390a25050565b6060600380546103c690610a48565b80601f01602080910402602001604051908101604052809291908181526020018280546103f290610a48565b801561043f5780601f106104145761010080835404028352916020019161043f565b820191906000526020600020905b81548152906001019060200180831161042257829003601f168201915b5050505050905090565b600033610457818585610567565b60019150505b92915050565b600033610471858285610579565b61047c8585856105f7565b506001949350505050565b600061045d60c883610a98565b61049c610656565b6104a68282610531565b5050565b6104b43382610683565b50565b6104bf610656565b6104c960006106b9565b565b6060600480546103c690610a48565b6104c933610358565b6000336104578185856105f7565b6104f9610656565b6001600160a01b03811661052857604051631e4fbdf760e01b8152600060048201526024015b60405180910390fd5b6104b4816106b9565b6001600160a01b03821661055b5760405163ec442f0560e01b81526000600482015260240161051f565b6104a66000838361070b565b6105748383836001610835565b505050565b6001600160a01b0383811660009081526001602090815260408083209386168352929052205460001981146105f157818110156105e257604051637dc7a0d960e11b81526001600160a01b0384166004820152602481018290526044810183905260640161051f565b6105f184848484036000610835565b50505050565b6001600160a01b03831661062157604051634b637e8f60e11b81526000600482015260240161051f565b6001600160a01b03821661064b5760405163ec442f0560e01b81526000600482015260240161051f565b61057483838361070b565b6005546001600160a01b031633146104c95760405163118cdaa760e01b815233600482015260240161051f565b6001600160a01b0382166106ad57604051634b637e8f60e11b81526000600482015260240161051f565b6104a68260008361070b565b600580546001600160a01b038381166001600160a01b0319831681179093556040519116919082907f8be0079c531659141344cd1fd0a4f28419497f9722a3daafe3b4186f6b6457e090600090a35050565b6001600160a01b03831661073657806002600082825461072b9190610aaf565b909155506107a89050565b6001600160a01b038316600090815260208190526040902054818110156107895760405163391434e360e21b81526001600160a01b0385166004820152602481018290526044810183905260640161051f565b6001600160a01b03841660009081526020819052604090209082900390555b6001600160a01b0382166107c4576002805482900390556107e3565b6001600160a01b03821660009081526020819052604090208054820190555b816001600160a01b0316836001600160a01b03167fddf252ad1be2c89b69c2b068fc378daa952ba7f163c4a11628f55a4df523b3ef8360405161082891815260200190565b60405180910390a3505050565b6001600160a01b03841661085f5760405163e602df0560e01b81526000600482015260240161051f565b6001600160a01b03831661088957604051634a1406b160e11b81526000600482015260240161051f565b6001600160a01b03808516600090815260016020908152604080832093871683529290522082905580156105f157826001600160a01b0316846001600160a01b03167f8c5be1e5ebec7d5bd14f71427d1e84f3dd0314c0f7b2291e5b200ac8c7c3b925846040516108fc91815260200190565b60405180910390a350505050565b600060208083528351808285015260005b818110156109375785810183015185820160400152820161091b565b506000604082860101526040601f19601f8301168501019250505092915050565b80356001600160a01b038116811461096f57600080fd5b919050565b6000806040838503121561098757600080fd5b61099083610958565b946020939093013593505050565b6000806000606084860312156109b357600080fd5b6109bc84610958565b92506109ca60208501610958565b9150604084013590509250925092565b6000602082840312156109ec57600080fd5b5035919050565b600060208284031215610a0557600080fd5b610a0e82610958565b9392505050565b60008060408385031215610a2857600080fd5b610a3183610958565b9150610a3f60208401610958565b90509250929050565b600181811c90821680610a5c57607f821691505b602082108103610a7c57634e487b7160e01b600052602260045260246000fd5b50919050565b634e487b7160e01b600052601160045260246000fd5b808202811582820484141761045d5761045d610a82565b8082018082111561045d5761045d610a8256fea26469706673582212201700e7897f2468a09879b6e58c62d47ea02031a34731eb36734161b3502c507964736f6c63430008140033",
  "devdoc": {
    "errors": {
      "ERC20InsufficientAllowance(address,uint256,uint256)": [
        {
          "details": "Indicates a failure with the `spender`s `allowance`. Used in transfers.",
          "params": {
            "allowance": "Amount of tokens a `spender` is allowed to operate with.",
            "needed": "Minimum amount required to perform a transfer.",
            "spender": "Address that may be allowed to operate on tokens without being their owner."
          }
        }
      ],
      "ERC20InsufficientBalance(address,uint256,uint256)": [
        {
          "details": "Indicates an error related to the current `balance` of a `sender`. Used in transfers.",
          "params": {
            "balance": "Current balance for the interacting account.",
            "needed": "Minimum amount required to perform a transfer.",
            "sender": "Address whose tokens are being transferred."
          }
        }
      ],
      "ERC20InvalidApprover(address)": [
        {
          "details": "Indicates a failure with the `approver` of a token to be approved. Used in approvals.",
          "params": {
            "approver": "Address initiating an approval operation."
          }
        }
      ],
      "ERC20InvalidReceiver(address)": [
        {
          "details": "Indicates a failure with the token `receiver`. Used in transfers.",
          "params": {
            "receiver": "Address to which tokens are being transferred."
          }
        }
      ],
      "ERC20InvalidSender(address)": [
        {
          "details": "Indicates a failure with the token `sender`. Used in transfers.",
          "params": {
            "sender": "Address whose tokens are being transferred."
          }
        }
      ],
      "ERC20InvalidSpender(address)": [
        {
          "details": "Indicates a failure with the `spender` to be approved. Used in approvals.",
          "params": {
            "spender": "Address that may be allowed to operate on tokens without being their owner."
          }
        }
      ],
      "OwnableInvalidOwner(address)": [
        {
          "details": "The owner is not a valid owner account. (eg. `address(0)`)"
        }
      ],
      "OwnableUnauthorizedAccount(address)": [
        {
          "details": "The caller account is not authorized to perform an operation."
        }
      ]
    },
    "events": {
      "Approval(address,address,uint256)": {
        "details": "Emitted when the allowance of a `spender` for an `owner` is set by a call to {approve}. `value` is the new allowance."
      },
      "Transfer(address,address,uint256)": {
        "details": "Emitted when `value` tokens are moved from one account (`from`) to another (`to`). Note that `value` may be zero."
      }
    },
    "kind": "dev",
    "methods": {
      "allowance(address,address)": {
        "details": "See {IERC20-allowance}."
      },
      "approve(address,uint256)": {
        "details": "See {IERC20-approve}. NOTE: If `value` is the maximum `uint256`, the allowance is not updated on `transferFrom`. This is semantically equivalent to an infinite approval. Requirements: - `spender` cannot be the zero address."
      },
      "balanceOf(address)": {
        "details": "See {IERC20-balanceOf}."
      },
      "decimals()": {
        "details": "Returns the number of decimals used to get its user representation. For example, if `decimals` equals `2`, a balance of `505` tokens should be displayed to a user as `5.05` (`505 / 10 ** 2`). Tokens usually opt for a value of 18, imitating the relationship between Ether and Wei. This is the default value returned by this function, unless it's overridden. NOTE: This information is only used for _display_ purposes: it in no way affects any of the arithmetic of the contract, including {IERC20-balanceOf} and {IERC20-transfer}."
      },
      "name()": {
        "details": "Returns the name of the token."
      },
      "owner()": {
        "details": "Returns the address of the current owner."
      },
      "renounceOwnership()": {
        "details": "Leaves the contract without owner. It will not be possible to call `onlyOwner` functions. Can only be called by the current owner. NOTE: Renouncing ownership will leave the contract without an owner, thereby disabling any functionality that is only available to the owner."
      },
      "symbol()": {
        "details": "Returns the symbol of the token, usually a shorter version of the name."
      },
      "totalSupply()": {
        "details": "See {IERC20-totalSupply}."
      },
      "transfer(address,uint256)": {
        "details": "See {IERC20-transfer}. Requirements: - `to` cannot be the zero address. - the caller must have a balance of at least `value`."
      },
      "transferFrom(address,address,uint256)": {
        "details": "See {IERC20-transferFrom}. Emits an {Approval} event indicating the updated allowance. This is not required by the EIP. See the note at the beginning of {ERC20}. NOTE: Does not update the allowance if the current allowance is the maximum `uint256`. Requirements: - `from` and `to` cannot be the zero address. - `from` must have a balance of at least `value`. - the caller must have allowance for ``from``'s tokens of at least `value`."
      },
      "transferOwnership(address)": {
        "details": "Transfers ownership of the contract to a new account (`newOwner`). Can only be called by the current owner."
      }
    },
    "version": 1
  },
  "userdoc": {
    "errors": {
      "EthTransferFailed()": [
        {
          "notice": "Errors //////"
        }
      ]
    },
    "events": {
      "OraPurchased(address,uint256,uint256)": {
        "notice": "Events /////"
      }
    },
    "kind": "user",
    "methods": {
      "ORA_PER_ETH()": {
        "notice": "Constants ////"
      }
    },
    "version": 1
  },
  "storageLayout": {
    "storage": [
      {
        "astId": 307,
        "contract": "contracts/01_Staking/OracleToken.sol:ORA",
        "label": "_balances",
        "offset": 0,
        "slot": "0",
        "type": "t_mapping(t_address,t_uint256)"
      },
      {
        "astId": 313,
        "contract": "contracts/01_Staking/OracleToken.sol:ORA",
        "label": "_allowances",
        "offset": 0,
        "slot": "1",
        "type": "t_mapping(t_address,t_mapping(t_address,t_uint256))"
      },
      {
        "astId": 315,
        "contract": "contracts/01_Staking/OracleToken.sol:ORA",
        "label": "_totalSupply",
        "offset": 0,
        "slot": "2",
        "type": "t_uint256"
      },
      {
        "astId": 317,
        "contract": "contracts/01_Staking/OracleToken.sol:ORA",
        "label": "_name",
        "offset": 0,
        "slot": "3",
        "type": "t_string_storage"
      },
      {
        "astId": 319,
        "contract": "contracts/01_Staking/OracleToken.sol:ORA",
        "label": "_symbol",
        "offset": 0,
        "slot": "4",
        "type": "t_string_storage"
      },
      {
        "astId": 8,
        "contract": "contracts/01_Staking/OracleToken.sol:ORA",
        "label": "_owner",
        "offset": 0,
        "slot": "5",
        "type": "t_address"
      }
    ],
    "types": {
      "t_address": {
        "encoding": "inplace",
        "label": "address",
        "numberOfBytes": "20"
      },
      "t_mapping(t_address,t_mapping(t_address,t_uint256))": {
        "encoding": "mapping",
        "key": "t_address",
        "label": "mapping(address => mapping(address => uint256))",
        "numberOfBytes": "32",
        "value": "t_mapping(t_address,t_uint256)"
      },
      "t_mapping(t_address,t_uint256)": {
        "encoding": "mapping",
        "key": "t_address",
        "label": "mapping(address => uint256)",
        "numberOfBytes": "32",
        "value": "t_uint256"
      },
      "t_string_storage": {
        "encoding": "bytes",
        "label": "string",
        "numberOfBytes": "32"
      },
      "t_uint256": {
        "encoding": "inplace",
        "label": "uint256",
        "numberOfBytes": "32"
      }
    }
  }
}