{
  "address": "0xfD662F4f7e39c0bA0475DbC24626194d5B33212C",
  "abi": [
    {
      "inputs": [
        {
          "internalType": "address",
          "name": "oraTokenAddress",
          "type": "address"
        }
      ],
      "stateMutability": "nonpayable",
      "type": "constructor"
    },
    {
      "inputs": [],
      "name": "AlreadyReportedInCurrentBucket",
      "type": "error"
    },
    {
      "inputs": [],
      "name": "BucketMedianAlreadyRecorded",
      "type": "error"
    },
    {
      "inputs": [],
      "name": "EmptyArray",
      "type": "error"
    },
    {
      "inputs": [],
      "name": "IndexOutOfBounds",
      "type": "error"
    },
    {
      "inputs": [],
      "name": "InsufficientStake",
      "type": "error"
    },
    {
      "inputs": [],
      "name": "InvalidPrice",
      "type": "error"
    },
    {
      "inputs": [],
      "name": "MedianNotRecorded",
      "type": "error"
    },
    {
      "inputs": [],
      "name": "NoRewardsAvailable",
      "type": "error"
    },
    {
      "inputs": [],
      "name": "NodeAlreadyRegistered",
      "type": "error"
    },
    {
      "inputs": [],
      "name": "NodeAlreadySlashed",
      "type": "error"
    },
    {
      "inputs": [],
      "name": "NodeDidNotReport",
      "type": "error"
    },
    {
      "inputs": [],
      "name": "NodeNotAtGivenIndex",
      "type": "error"
    },
    {
      "inputs": [],
      "name": "NodeNotRegistered",
      "type": "error"
    },
    {
      "inputs": [],
      "name": "NotDeviated",
      "type": "error"
    },
    {
      "inputs": [],
      "name": "OnlyPastBucketsAllowed",
      "type": "error"
    },
    {
      "inputs": [],
      "name": "TransferFailed",
      "type": "error"
    },
    {
      "inputs": [],
      "name": "WaitingPeriodNotOver",
      "type": "error"
    },
    {
      "anonymous": false,
      "inputs": [
        {
          "indexed": true,
          "internalType": "uint256",
          "name": "bucketNumber",
          "type": "uint256"
        },
        {
          "indexed": false,
          "internalType": "uint256",
          "name": "medianPrice",
          "type": "uint256"
        }
      ],
      "name": "BucketMedianRecorded",
      "type": "event"
    },
    {
      "anonymous": false,
      "inputs": [
        {
          "indexed": true,
          "internalType": "address",
          "name": "node",
          "type": "address"
        },
        {
          "indexed": false,
          "internalType": "uint256",
          "name": "amount",
          "type": "uint256"
        }
      ],
      "name": "NodeExited",
      "type": "event"
    },
    {
      "anonymous": false,
      "inputs": [
        {
          "indexed": true,
          "internalType": "address",
          "name": "node",
          "type": "address"
        },
        {
          "indexed": false,
          "internalType": "uint256",
          "name": "stakedAmount",
          "type": "uint256"
        }
      ],
      "name": "NodeRegistered",
      "type": "event"
    },
    {
      "anonymous": false,
      "inputs": [
        {
          "indexed": true,
          "internalType": "address",
          "name": "node",
          "type": "address"
        },
        {
          "indexed": false,
          "internalType": "uint256",
          "name": "amount",
          "type": "uint256"
        }
      ],
      "name": "NodeRewarded",
      "type": "event"
    },
    {
      "anonymous": false,
      "inputs": [
        {
          "indexed": true,
          "internalType": "address",
          "name": "node",
          "type": "address"
        },
        {
          "indexed": false,
          "internalType": "uint256",
          "name": "amount",
          "type": "uint256"
        }
      ],
      "name": "NodeSlashed",
      "type": "event"
    },
    {
      "anonymous": false,
      "inputs": [
        {
          "indexed": true,
          "internalType": "address",
          "name": "node",
          "type": "address"
        },
        {
          "indexed": false,
          "internalType": "uint256",
          "name": "price",
          "type": "uint256"
        },
        {
          "indexed": false,
          "internalType": "uint256",
          "name": "bucketNumber",
          "type": "uint256"
        }
      ],
      "name": "PriceReported",
      "type": "event"
    },
    {
      "anonymous": false,
      "inputs": [
        {
          "indexed": true,
          "internalType": "address",
          "name": "node",
          "type": "address"
        },
        {
          "indexed": false,
          "internalType": "uint256",
          "name": "amount",
          "type": "uint256"
        }
      ],
      "name": "StakeAdded",
      "type": "event"
    },
    {
      "inputs": [],
      "name": "BUCKET_WINDOW",
      "outputs": [
        {
          "internalType": "uint256",
          "name": "",
          "type": "uint256"
        }
      ],
      "stateMutability": "view",
      "type": "function"
    },
    {
      "inputs": [],
      "name": "INACTIVITY_PENALTY",
      "outputs": [
        {
          "internalType": "uint256",
          "name": "",
          "type": "uint256"
        }
      ],
      "stateMutability": "view",
      "type": "function"
    },
    {
      "inputs": [],
      "name": "MAX_DEVIATION_BPS",
      "outputs": [
        {
          "internalType": "uint256",
          "name": "",
          "type": "uint256"
        }
      ],
      "stateMutability": "view",
      "type": "function"
    },
    {
      "inputs": [],
      "name": "MINIMUM_STAKE",
      "outputs": [
        {
          "internalType": "uint256",
          "name": "",
          "type": "uint256"
        }
      ],
      "stateMutability": "view",
      "type": "function"
    },
    {
      "inputs": [],
      "name": "MISREPORT_PENALTY",
      "outputs": [
        {
          "internalType": "uint256",
          "name": "",
          "type": "uint256"
        }
      ],
      "stateMutability": "view",
      "type": "function"
    },
    {
      "inputs": [],
      "name": "REWARD_PER_REPORT",
      "outputs": [
        {
          "internalType": "uint256",
          "name": "",
          "type": "uint256"
        }
      ],
      "stateMutability": "view",
      "type": "function"
    },
    {
      "inputs": [],
      "name": "SLASHER_REWARD_PERCENTAGE",
      "outputs": [
        {
          "internalType": "uint256",
          "name": "",
          "type": "uint256"
        }
      ],
      "stateMutability": "view",
      "type": "function"
    },
    {
      "inputs": [],
      "name": "WAITING_PERIOD",
      "outputs": [
        {
          "internalType": "uint256",
          "name": "",
          "type": "uint256"
        }
      ],
      "stateMutability": "view",
      "type": "function"
    },
    {
      "inputs": [
        {
          "internalType": "uint256",
          "name": "amount",
          "type": "uint256"
        }
      ],
      "name": "addStake",
      "outputs": [],
      "stateMutability": "nonpayable",
      "type": "function"
    },
    {
      "inputs": [
        {
          "internalType": "uint256",
          "name": "",
          "type": "uint256"
        }
      ],
      "name": "blockBuckets",
      "outputs": [
        {
          "internalType": "uint256",
          "name": "medianPrice",
          "type": "uint256"
        }
      ],
      "stateMutability": "view",
      "type": "function"
    },
    {
      "inputs": [],
      "name": "claimReward",
      "outputs": [],
      "stateMutability": "nonpayable",
      "type": "function"
    },
    {
      "inputs": [
        {
          "internalType": "uint256",
          "name": "index",
          "type": "uint256"
        }
      ],
      "name": "exitNode",
      "outputs": [],
      "stateMutability": "nonpayable",
      "type": "function"
    },
    {
      "inputs": [],
      "name": "getCurrentBucketNumber",
      "outputs": [
        {
          "internalType": "uint256",
          "name": "",
          "type": "uint256"
        }
      ],
      "stateMutability": "view",
      "type": "function"
    },
    {
      "inputs": [
        {
          "internalType": "address",
          "name": "nodeAddress",
          "type": "address"
        }
      ],
      "name": "getEffectiveStake",
      "outputs": [
        {
          "internalType": "uint256",
          "name": "",
          "type": "uint256"
        }
      ],
      "stateMutability": "view",
      "type": "function"
    },
    {
      "inputs": [],
      "name": "getLatestPrice",
      "outputs": [
        {
          "internalType": "uint256",
          "name": "",
          "type": "uint256"
        }
      ],
      "stateMutability": "view",
      "type": "function"
    },
    {
      "inputs": [],
      "name": "getNodeAddresses",
      "outputs": [
        {
          "internalType": "address[]",
          "name": "",
          "type": "address[]"
        }
      ],
      "stateMutability": "view",
      "type": "function"
    },
    {
      "inputs": [
        {
          "internalType": "uint256",
          "name": "bucketNumber",
          "type": "uint256"
        }
      ],
      "name": "getOutlierNodes",
      "outputs": [
        {
          "internalType": "address[]",
          "name": "",
          "type": "address[]"
        }
      ],
      "stateMutability": "view",
      "type": "function"
    },
    {
      "inputs": [
        {
          "internalType": "uint256",
          "name": "bucketNumber",
          "type": "uint256"
        }
      ],
      "name": "getPastPrice",
      "outputs": [
        {
          "internalType": "uint256",
          "name": "",
          "type": "uint256"
        }
      ],
      "stateMutability": "view",
      "type": "function"
    },
    {
      "inputs": [
        {
          "internalType": "address",
          "name": "nodeAddress",
          "type": "address"
        },
        {
          "internalType": "uint256",
          "name": "bucketNumber",
          "type": "uint256"
        }
      ],
      "name": "getSlashedStatus",
      "outputs": [
        {
          "internalType": "uint256",
          "name": "price",
          "type": "uint256"
        },
        {
          "internalType": "bool",
          "name": "slashed",
          "type": "bool"
        }
      ],
      "stateMutability": "view",
      "type": "function"
    },
    {
      "inputs": [
        {
          "internalType": "uint256",
          "name": "",
          "type": "uint256"
        }
      ],
      "name": "nodeAddresses",
      "outputs": [
        {
          "internalType": "address",
          "name": "",
          "type": "address"
        }
      ],
      "stateMutability": "view",
      "type": "function"
    },
    {
      "inputs": [
        {
          "internalType": "address",
          "name": "",
          "type": "address"
        }
      ],
      "name": "nodes",
      "outputs": [
        {
          "internalType": "uint256",
          "name": "stakedAmount",
          "type": "uint256"
        },
        {
          "internalType": "uint256",
          "name": "lastReportedBucket",
          "type": "uint256"
        },
        {
          "internalType": "uint256",
          "name": "reportCount",
          "type": "uint256"
        },
        {
          "internalType": "uint256",
          "name": "claimedReportCount",
          "type": "uint256"
        },
        {
          "internalType": "uint256",
          "name": "firstBucket",
          "type": "uint256"
        },
        {
          "internalType": "bool",
          "name": "active",
          "type": "bool"
        }
      ],
      "stateMutability": "view",
      "type": "function"
    },
    {
      "inputs": [],
      "name": "oracleToken",
      "outputs": [
        {
          "internalType": "contract ORA",
          "name": "",
          "type": "address"
        }
      ],
      "stateMutability": "view",
      "type": "function"
    },
    {
      "inputs": [
        {
          "internalType": "uint256",
          "name": "bucketNumber",
          "type": "uint256"
        }
      ],
      "name": "recordBucketMedian",
      "outputs": [],
      "stateMutability": "nonpayable",
      "type": "function"
    },
    {
      "inputs": [
        {
          "internalType": "uint256",
          "name": "amount",
          "type": "uint256"
        }
      ],
      "name": "registerNode",
      "outputs": [],
      "stateMutability": "nonpayable",
      "type": "function"
    },
    {
      "inputs": [
        {
          "internalType": "uint256",
          "name": "price",
          "type": "uint256"
        }
      ],
      "name": "reportPrice",
      "outputs": [],
      "stateMutability": "nonpayable",
      "type": "function"
    },
    {
      "inputs": [
        {
          "internalType": "address",
          "name": "nodeToSlash",
          "type": "address"
        },
        {
          "internalType": "uint256",
          "name": "bucketNumber",
          "type": "uint256"
        },
        {
          "internalType": "uint256",
          "name": "reportIndex",
          "type": "uint256"
        },
        {
          "internalType": "uint256",
          "name": "nodeAddressesIndex",
          "type": "uint256"
        }
      ],
      "name": "slashNode",
      "outputs": [],
      "stateMutability": "nonpayable",
      "type": "function"
    }
  ],
  "transactionHash": "0x176399c7cc9a115c3ded9994a72e7770176dd01430543d94e0b46e1e06d7412b",
  "args": [
    "0x35211b9794876AB89E7D44927e31b73295D7a606"
  ],
  "numDeployments": 1,
  "solcInputHash": "ceb2e81168bb06c144cc45553b12e8a7",
  "bytecode": "0x608060405234801561001057600080fd5b50604051611b95380380611b9583398101604081905261002f91610054565b600080546001600160a01b0319166001600160a01b0392909216919091179055610084565b60006020828403121561006657600080fd5b81516001600160a01b038116811461007d57600080fd5b9392505050565b611b02806100936000396000f3fe608060405234801561001057600080fd5b506004361061018e5760003560e01c80637f980edf116100de578063b88a802f11610097578063c7f898f011610071578063c7f898f014610386578063eb4f16b514610399578063eecd509a146103ac578063ff24357a146101b957600080fd5b8063b88a802f1461036b578063bd53436914610250578063c4d770901461037357600080fd5b80637f980edf146102ed57806383472fcf146103005780638bc116a21461032b5780638e15f47314610353578063a3cda9d11461035b578063ac9d5d691461036357600080fd5b80632e9498241161014b57806357772d311161012557806357772d311461029c5780636cfcca9c146102af5780636f85c7e4146102c25780637979e0ea146102ca57600080fd5b80632e9498241461025f5780633e07505c14610274578063479c92fe1461028957600080fd5b806302211f5e1461019357806308dbbb03146101b957806311ce06a2146101c9578063189a5a17146101d157806325c6840314610247578063298a9b2014610250575b600080fd5b6101a66101a13660046118da565b6103bf565b6040519081526020015b60405180910390f35b6101a668056bc75e2d6310000081565b6101a66104f2565b6102186101df3660046118da565b60016020819052600091825260409091208054918101546002820154600383015460048401546005909401549293919290919060ff1686565b6040805196875260208701959095529385019290925260608401526080830152151560a082015260c0016101b0565b6101a66103e881565b6101a6670de0b6b3a764000081565b61026761050f565b6040516101b091906118f5565b610287610282366004611942565b610571565b005b610267610297366004611942565b610729565b6102876102aa36600461195b565b610979565b6102876102bd366004611942565b610cff565b6101a6600281565b6101a66102d8366004611942565b60026020526000908152604090206003015481565b6102876102fb366004611942565b610e02565b600054610313906001600160a01b031681565b6040516001600160a01b0390911681526020016101b0565b61033e610339366004611994565b611002565b604080519283529015156020830152016101b0565b6101a66110ba565b6101a6601881565b6101a6600a81565b610287611113565b610313610381366004611942565b611235565b610287610394366004611942565b61125f565b6102876103a7366004611942565b6113ca565b6101a66103ba366004611942565b611513565b6001600160a01b0381166000908152600160208181526040808420815160c08101835281548152938101549284019290925260028201549083015260038101546060830152600481015460808301526005015460ff16151560a0820181905261042b5750600092915050565b60006104356104f2565b90508160800151810361044a57505192915050565b600082608001518261045c91906119d4565b6040840151602085015191925090831480156104785750600081115b1561048b576104886001826119d4565b90505b81811061049d57505090519392505050565b60006104a982846119d4565b905060006104bf670de0b6b3a7640000836119e7565b86519091508111156104d957506000979650505050505050565b85516104e69082906119d4565b98975050505050505050565b60006104ff601843611a14565b61050a906001611a28565b905090565b6060600380548060200260200160405190810160405280929190818152602001828054801561056757602002820191906000526020600020905b81546001600160a01b03168152600190910190602001808311610549575b5050505050905090565b3360009081526001602052604081206005015460ff16151590036105a7576040516229eaad60e31b815260040160405180910390fd5b60035481106105c957604051634e23d03560e01b815260040160405180910390fd5b6000600382815481106105de576105de611a3b565b60009182526020808320909101546001600160a01b03168083526001909152604090912090915061060d6104f2565b6002826001015461061e9190611a28565b111561063d57604051630832f48360e21b815260040160405180910390fd5b6000610648836103bf565b9050610654338561154f565b6000808355805460405163a9059cbb60e01b8152336004820152602481018490526001600160a01b039091169063a9059cbb906044016020604051808303816000875af11580156106a9573d6000803e3d6000fd5b505050506040513d601f19601f820116820180604052508101906106cd9190611a51565b9050806106ed576040516312171d8360e31b815260040160405180910390fd5b60405182815233907ffc3b44de028b3d70241998c7d84e5520785226d0c49d16d2b487735225254b3b9060200160405180910390a25050505050565b600081815260026020526040812060038101546060920361075d57604051630d60e2c560e21b815260040160405180910390fd5b600181015460009067ffffffffffffffff81111561077d5761077d611a73565b6040519080825280602002602001820160405280156107a6578160200160208202803683370190505b5090506000805b60018401548110156108c65760008460020182815481106107d0576107d0611a3b565b90600052602060002001549050806000141580156107f757506107f7818660030154611697565b8015610843575084600001600086600101848154811061081957610819611a3b565b60009182526020808320909101546001600160a01b0316835282019290925260400190205460ff16155b156108b35784600101828154811061085d5761085d611a3b565b9060005260206000200160009054906101000a90046001600160a01b031684848151811061088d5761088d611a3b565b6001600160a01b0390921660209283029190910190910152826108af81611a89565b9350505b50806108be81611a89565b9150506107ad565b5060008167ffffffffffffffff8111156108e2576108e2611a73565b60405190808252806020026020018201604052801561090b578160200160208202803683370190505b50905060005b8281101561096f5783818151811061092b5761092b611a3b565b602002602001015182828151811061094557610945611a3b565b6001600160a01b03909216602092830291909101909101528061096781611a89565b915050610911565b5095945050505050565b6109816104f2565b83036109a057604051638de4068d60e01b815260040160405180910390fd5b600083815260026020526040812060038101549091036109d357604051630d60e2c560e21b815260040160405180910390fd5b6001600160a01b03851660009081526020829052604090205460ff1615610a0d5760405163640d410760e11b815260040160405180910390fd5b60018101548310610a3157604051634e23d03560e01b815260040160405180910390fd5b6003548210610a5357604051634e23d03560e01b815260040160405180910390fd5b60038281548110610a6657610a66611a3b565b6000918252602090912001546001820180546001600160a01b039092169185908110610a9457610a94611a3b565b6000918252602090912001546001600160a01b031614610ac75760405163a2f90c8160e01b815260040160405180910390fd5b6000816002018481548110610ade57610ade611a3b565b9060005260206000200154905080600003610b0c576040516339e78cf960e11b815260040160405180910390fd5b610b1a818360030154611697565b610b3757604051632626606360e11b815260040160405180910390fd5b6001600160a01b038616600090815260208381526040808320805460ff191660019081179091559091528120805490919068056bc75e2d6310000011610b865768056bc75e2d63100000610b89565b81545b905080826000016000828254610b9f91906119d4565b90915550508154600003610bfc57610bb7888661154f565b876001600160a01b03167ffc3b44de028b3d70241998c7d84e5520785226d0c49d16d2b487735225254b3b6000604051610bf391815260200190565b60405180910390a25b60006064610c0b600a846119e7565b610c159190611a14565b6000805460405163a9059cbb60e01b81523360048201526024810184905292935090916001600160a01b039091169063a9059cbb906044016020604051808303816000875af1158015610c6c573d6000803e3d6000fd5b505050506040513d601f19601f82011682018060405250810190610c909190611a51565b905080610cb0576040516312171d8360e31b815260040160405180910390fd5b896001600160a01b03167f51cf713376ddb1e5f5828bb6aa39d99de812176d62c3d3550bdc4e0b5e86e1a584604051610ceb91815260200190565b60405180910390a250505050505050505050565b6000818152600260205260409020600381015415610d3057604051634032e39760e11b815260040160405180910390fd5b610d386104f2565b8203610d5757604051638de4068d60e01b815260040160405180910390fd5b600081600201805480602002602001604051908101604052809291908181526020018280548015610da757602002820191906000526020600020905b815481526020019060010190808311610d93575b50505050509050610db7816116e4565b610dc0816117e9565b6003830181905560405190815283907fedf992fb93a24d0aa183128c5dfb20a7603592bad3feb0702efa3a65260a2dad906020015b60405180910390a2505050565b68056bc75e2d63100000811015610e2c576040516378de4a6960e11b815260040160405180910390fd5b3360009081526001602081905260409091206005015460ff1615159003610e6657604051630eb0d31360e11b815260040160405180910390fd5b600080546040516323b872dd60e01b8152336004820152306024820152604481018490526001600160a01b03909116906323b872dd906064016020604051808303816000875af1158015610ebe573d6000803e3d6000fd5b505050506040513d601f19601f82011682018060405250810190610ee29190611a51565b905080610f02576040516312171d8360e31b815260040160405180910390fd5b60006040518060c00160405280848152602001600081526020016000815260200160008152602001610f326104f2565b815260016020918201819052336000818152828452604080822086518155868601518186015586820151600282015560608701516003808301919091556080880151600483015560a08801516005909201805460ff191692151592909217909155805494850181559091527fc2575a0e9e593c00f959f8c92f12db2869c3395a3b0502d05e2516446f71f85b90920180546001600160a01b031916821790559051868152929350917ff773bca07d020a1bc1fdd45ea3db573da547dd27180143afaf075c158a8475949101610df5565b60008181526002602052604081208190815b60018201548110156110b157856001600160a01b031682600101828154811061103f5761103f611a3b565b6000918252602090912001546001600160a01b03160361109f5781600201818154811061106e5761106e611a3b565b60009182526020808320909101546001600160a01b03891683529084905260409091205490945060ff1692506110b1565b806110a981611a89565b915050611014565b50509250929050565b6000806002600060016110cb6104f2565b6110d591906119d4565b81526020019081526020016000209050806003015460000361110a57604051630d60e2c560e21b815260040160405180910390fd5b60030154919050565b3360009081526001602052604081206003810154600282015491929161113991906119d4565b90508060000361115c5760405163afb0be3360e01b815260040160405180910390fd5b600282015460038301556000546001600160a01b03166340c10f193361118a670de0b6b3a7640000856119e7565b6040516001600160e01b031960e085901b1681526001600160a01b0390921660048301526024820152604401600060405180830381600087803b1580156111d057600080fd5b505af11580156111e4573d6000803e3d6000fd5b503392507f4ea3e03797614006774acce32832fbaa20d9d69de554df367f4bb8a98b92e742915061121f9050670de0b6b3a7640000846119e7565b6040519081526020015b60405180910390a25050565b6003818154811061124557600080fd5b6000918252602090912001546001600160a01b0316905081565b3360009081526001602052604081206005015460ff1615159003611295576040516229eaad60e31b815260040160405180910390fd5b806000036112b55760405162bfc92160e01b815260040160405180910390fd5b68056bc75e2d631000006112c8336103bf565b10156112e7576040516378de4a6960e11b815260040160405180910390fd5b336000908152600160205260408120906112ff6104f2565b905080826001015403611325576040516303309d3f60e11b815260040160405180910390fd5b600081815260026020818152604083206001808201805480830182559086528386200180546001600160a01b03191633179055818401805480830182559086529285209092018790559085018490559084018054919261138483611a89565b9091555050604080518581526020810184905233917f9e595d16d532e4b0dee9420e99a1a4c9862cfdb004a5d369e9695880daf6d3e0910160405180910390a250505050565b3360009081526001602052604081206005015460ff1615159003611400576040516229eaad60e31b815260040160405180910390fd5b80600003611421576040516378de4a6960e11b815260040160405180910390fd5b600080546040516323b872dd60e01b8152336004820152306024820152604481018490526001600160a01b03909116906323b872dd906064016020604051808303816000875af1158015611479573d6000803e3d6000fd5b505050506040513d601f19601f8201168201806040525081019061149d9190611a51565b9050806114bd576040516312171d8360e31b815260040160405180910390fd5b33600090815260016020526040812080548492906114dc908490611a28565b909155505060405182815233907f7c717985ac273e663b7f3050f5b15a4388ff6ed952338954f650e2093e13937f90602001611229565b60008181526002602052604081206003810154820361154557604051630d60e2c560e21b815260040160405180910390fd5b6003015492915050565b600354811061157157604051634e23d03560e01b815260040160405180910390fd5b816001600160a01b03166003828154811061158e5761158e611a3b565b6000918252602090912001546001600160a01b0316146115c15760405163a2f90c8160e01b815260040160405180910390fd5b600380546115d1906001906119d4565b815481106115e1576115e1611a3b565b600091825260209091200154600380546001600160a01b03909216918390811061160d5761160d611a3b565b9060005260206000200160006101000a8154816001600160a01b0302191690836001600160a01b03160217905550600380548061164c5761164c611aa2565b60008281526020808220830160001990810180546001600160a01b03191690559092019092556001600160a01b0393909316815260019092525060409020600501805460ff19169055565b6000808284116116b0576116ab84846119d4565b6116ba565b6116ba83856119d4565b90506000836116cb836127106119e7565b6116d59190611a14565b6103e810925050505b92915050565b805160005b818110156117e4578060006116ff826001611a28565b90505b8381101561175a5784828151811061171c5761171c611a3b565b602002602001015185828151811061173657611736611a3b565b60200260200101511015611748578091505b8061175281611a89565b915050611702565b508181146117d15783818151811061177457611774611a3b565b602002602001015184838151811061178e5761178e611a3b565b60200260200101518584815181106117a8576117a8611a3b565b602002602001018684815181106117c1576117c1611a3b565b6020908102919091010191909152525b50806117dc81611a89565b9150506116e9565b505050565b805160009080820361180e5760405163521299a960e01b815260040160405180910390fd5b611819600282611ab8565b6000036118925760028361182d8284611a14565b8151811061183d5761183d611a3b565b60200260200101518460016002856118559190611a14565b61185f91906119d4565b8151811061186f5761186f611a3b565b60200260200101516118819190611a28565b61188b9190611a14565b9392505050565b8261189e600283611a14565b815181106118ae576118ae611a3b565b6020026020010151915050919050565b80356001600160a01b03811681146118d557600080fd5b919050565b6000602082840312156118ec57600080fd5b61188b826118be565b6020808252825182820181905260009190848201906040850190845b818110156119365783516001600160a01b031683529284019291840191600101611911565b50909695505050505050565b60006020828403121561195457600080fd5b5035919050565b6000806000806080858703121561197157600080fd5b61197a856118be565b966020860135965060408601359560600135945092505050565b600080604083850312156119a757600080fd5b6119b0836118be565b946020939093013593505050565b634e487b7160e01b600052601160045260246000fd5b818103818111156116de576116de6119be565b80820281158282048414176116de576116de6119be565b634e487b7160e01b600052601260045260246000fd5b600082611a2357611a236119fe565b500490565b808201808211156116de576116de6119be565b634e487b7160e01b600052603260045260246000fd5b600060208284031215611a6357600080fd5b8151801515811461188b57600080fd5b634e487b7160e01b600052604160045260246000fd5b600060018201611a9b57611a9b6119be565b5060010190565b634e487b7160e01b600052603160045260246000fd5b600082611ac757611ac76119fe565b50069056fea2646970667358221220d6ad10cdcd761d3710c10fb7104555e403fa6f84c5bb181a458d003fb8a9935964736f6c63430008140033",
  "devdoc": {
    "kind": "dev",
    "methods": {
      "claimReward()": {
        "details": "Calculates rewards based on time elapsed since last claim."
      },
      "exitNode(uint256)": {
        "details": "Removes the node from the system and sends the stake to the node.      Requires that the the initial waiting period has passed to ensure the      node has been slashed if it reported a bad price before allowing it to exit.",
        "params": {
          "index": "The index of the node to remove in nodeAddresses"
        }
      },
      "getCurrentBucketNumber()": {
        "details": "Returns the current bucket number based on the block number",
        "returns": {
          "_0": "The current bucket number"
        }
      },
      "getEffectiveStake(address)": {
        "details": "Effective stake = stakedAmount - (missedBuckets * INACTIVITY_PENALTY), floored at 0"
      },
      "getLatestPrice()": {
        "details": "Requires that the median for the bucket be recorded via recordBucketMedian",
        "returns": {
          "_0": "The median price for the last finalized bucket"
        }
      },
      "getNodeAddresses()": {
        "returns": {
          "_0": "Array of registered oracle node addresses"
        }
      },
      "getOutlierNodes(uint256)": {
        "params": {
          "bucketNumber": "The bucket number to get the outliers from"
        },
        "returns": {
          "_0": "Array of node addresses considered outliers"
        }
      },
      "getPastPrice(uint256)": {
        "params": {
          "bucketNumber": "The bucket number to read the median price from"
        },
        "returns": {
          "_0": "The median price stored for the bucket"
        }
      },
      "getSlashedStatus(address,uint256)": {
        "params": {
          "bucketNumber": "The bucket number to get the data from",
          "nodeAddress": "The address of the node to get the data for"
        },
        "returns": {
          "price": "The price of the node at the specified bucket",
          "slashed": "The slashed status of the node at the specified bucket"
        }
      },
      "recordBucketMedian(uint256)": {
        "details": "Anyone who uses the oracle's price feed can call this function to record the median price for a bucket.",
        "params": {
          "bucketNumber": "The bucket number to finalize"
        }
      },
      "registerNode(uint256)": {
        "details": "Creates a new OracleNode struct and adds the sender to the nodeAddresses array.      Requires minimum stake amount and prevents duplicate registrations."
      },
      "reportPrice(uint256)": {
        "details": "Updates the node's lastReportedBucket and price in that bucket. Requires sufficient stake.      Enforces that previous report's bucket must have its median recorded before allowing new report.      This creates a chain of finalized buckets, ensuring all past reports are accountable.",
        "params": {
          "price": "The new price value to report"
        }
      },
      "slashNode(address,uint256,uint256,uint256)": {
        "params": {
          "bucketNumber": "The bucket number to slash the node from",
          "nodeAddressesIndex": "The index of the node to slash in the nodeAddresses array",
          "nodeToSlash": "The address of the node to slash",
          "reportIndex": "The index of node in the prices and reporters arrays"
        }
      }
    },
    "version": 1
  },
  "userdoc": {
    "errors": {
      "EmptyArray()": [
        {
          "notice": "Errors //////"
        }
      ],
      "NodeNotRegistered()": [
        {
          "notice": "Errors //////"
        }
      ]
    },
    "events": {
      "NodeRegistered(address,uint256)": {
        "notice": "Events /////"
      }
    },
    "kind": "user",
    "methods": {
      "addStake(uint256)": {
        "notice": "Allows a registered node to increase its ORA token stake"
      },
      "claimReward()": {
        "notice": "Allows active and inactive nodes to claim accumulated ORA token rewards"
      },
      "constructor": {
        "notice": "Constructor ///"
      },
      "exitNode(uint256)": {
        "notice": "Allows a registered node to exit the system and withdraw their stake"
      },
      "getCurrentBucketNumber()": {
        "notice": "Returns the current bucket number"
      },
      "getEffectiveStake(address)": {
        "notice": "Returns the effective stake accounting for inactivity penalties via missed buckets"
      },
      "getLatestPrice()": {
        "notice": "Returns the stored median price from the most recently completed bucket"
      },
      "getNodeAddresses()": {
        "notice": "Returns the list of registered oracle node addresses"
      },
      "getOutlierNodes(uint256)": {
        "notice": "Returns the addresses of nodes in a bucket whose reported price deviates beyond the threshold"
      },
      "getPastPrice(uint256)": {
        "notice": "Returns the stored median price from a specified bucket"
      },
      "getSlashedStatus(address,uint256)": {
        "notice": "Returns the price and slashed status of a node at a given bucket"
      },
      "oracleToken()": {
        "notice": "State Variables //"
      },
      "recordBucketMedian(uint256)": {
        "notice": "Records the median price for a bucket once sufficient reports are available"
      },
      "registerNode(uint256)": {
        "notice": "Registers a new oracle node with initial ORA token stake"
      },
      "reportPrice(uint256)": {
        "notice": "Updates the price reported by an oracle node (only registered nodes)"
      },
      "slashNode(address,uint256,uint256,uint256)": {
        "notice": "Slashes a node for giving a price that is deviated too far from the average"
      }
    },
    "version": 1
  },
  "storageLayout": {
    "storage": [
      {
        "astId": 1112,
        "contract": "contracts/01_Staking/StakingOracle.sol:StakingOracle",
        "label": "oracleToken",
        "offset": 0,
        "slot": "0",
        "type": "t_contract(ORA)1065"
      },
      {
        "astId": 1143,
        "contract": "contracts/01_Staking/StakingOracle.sol:StakingOracle",
        "label": "nodes",
        "offset": 0,
        "slot": "1",
        "type": "t_mapping(t_address,t_struct(OracleNode)1125_storage)"
      },
      {
        "astId": 1148,
        "contract": "contracts/01_Staking/StakingOracle.sol:StakingOracle",
        "label": "blockBuckets",
        "offset": 0,
        "slot": "2",
        "type": "t_mapping(t_uint256,t_struct(BlockBucket)1138_storage)"
      },
      {
        "astId": 1151,
        "contract": "contracts/01_Staking/StakingOracle.sol:StakingOracle",
        "label": "nodeAddresses",
        "offset": 0,
        "slot": "3",
        "type": "t_array(t_address)dyn_storage"
      }
    ],
    "types": {
      "t_address": {
        "encoding": "inplace",
        "label": "address",
        "numberOfBytes": "20"
      },
      "t_array(t_address)dyn_storage": {
        "base": "t_address",
        "encoding": "dynamic_array",
        "label": "address[]",
        "numberOfBytes": "32"
      },
      "t_array(t_uint256)dyn_storage": {
        "base": "t_uint256",
        "encoding": "dynamic_array",
        "label": "uint256[]",
        "numberOfBytes": "32"
      },
      "t_bool": {
        "encoding": "inplace",
        "label": "bool",
        "numberOfBytes": "1"
      },
      "t_contract(ORA)1065": {
        "encoding": "inplace",
        "label": "contract ORA",
        "numberOfBytes": "20"
      },
      "t_mapping(t_address,t_bool)": {
        "encoding": "mapping",
        "key": "t_address",
        "label": "mapping(address => bool)",
        "numberOfBytes": "32",
        "value": "t_bool"
      },
      "t_mapping(t_address,t_struct(OracleNode)1125_storage)": {
        "encoding": "mapping",
        "key": "t_address",
        "label": "mapping(address => struct StakingOracle.OracleNode)",
        "numberOfBytes": "32",
        "value": "t_struct(OracleNode)1125_storage"
      },
      "t_mapping(t_uint256,t_struct(BlockBucket)1138_storage)": {
        "encoding": "mapping",
        "key": "t_uint256",
        "label": "mapping(uint256 => struct StakingOracle.BlockBucket)",
        "numberOfBytes": "32",
        "value": "t_struct(BlockBucket)1138_storage"
      },
      "t_struct(BlockBucket)1138_storage": {
        "encoding": "inplace",
        "label": "struct StakingOracle.BlockBucket",
        "members": [
          {
            "astId": 1129,
            "contract": "contracts/01_Staking/StakingOracle.sol:StakingOracle",
            "label": "slashedOffenses",
            "offset": 0,
            "slot": "0",
            "type": "t_mapping(t_address,t_bool)"
          },
          {
            "astId": 1132,
            "contract": "contracts/01_Staking/StakingOracle.sol:StakingOracle",
            "label": "reporters",
            "offset": 0,
            "slot": "1",
            "type": "t_array(t_address)dyn_storage"
          },
          {
            "astId": 1135,
            "contract": "contracts/01_Staking/StakingOracle.sol:StakingOracle",
            "label": "prices",
            "offset": 0,
            "slot": "2",
            "type": "t_array(t_uint256)dyn_storage"
          },
          {
            "astId": 1137,
            "contract": "contracts/01_Staking/StakingOracle.sol:StakingOracle",
            "label": "medianPrice",
            "offset": 0,
            "slot": "3",
            "type": "t_uint256"
          }
        ],
        "numberOfBytes": "128"
      },
      "t_struct(OracleNode)1125_storage": {
        "encoding": "inplace",
        "label": "struct StakingOracle.OracleNode",
        "members": [
          {
            "astId": 1114,
            "contract": "contracts/01_Staking/StakingOracle.sol:StakingOracle",
            "label": "stakedAmount",
            "offset": 0,
            "slot": "0",
            "type": "t_uint256"
          },
          {
            "astId": 1116,
            "contract": "contracts/01_Staking/StakingOracle.sol:StakingOracle",
            "label": "lastReportedBucket",
            "offset": 0,
            "slot": "1",
            "type": "t_uint256"
          },
          {
            "astId": 1118,
            "contract": "contracts/01_Staking/StakingOracle.sol:StakingOracle",
            "label": "reportCount",
            "offset": 0,
            "slot": "2",
            "type": "t_uint256"
          },
          {
            "astId": 1120,
            "contract": "contracts/01_Staking/StakingOracle.sol:StakingOracle",
            "label": "claimedReportCount",
            "offset": 0,
            "slot": "3",
            "type": "t_uint256"
          },
          {
            "astId": 1122,
            "contract": "contracts/01_Staking/StakingOracle.sol:StakingOracle",
            "label": "firstBucket",
            "offset": 0,
            "slot": "4",
            "type": "t_uint256"
          },
          {
            "astId": 1124,
            "contract": "contracts/01_Staking/StakingOracle.sol:StakingOracle",
            "label": "active",
            "offset": 0,
            "slot": "5",
            "type": "t_bool"
          }
        ],
        "numberOfBytes": "192"
      },
      "t_uint256": {
        "encoding": "inplace",
        "label": "uint256",
        "numberOfBytes": "32"
      }
    }
  }
}